{
	"data": {
		"bytecode": {
			"linkReferences": {},
			"object": "60c060405234801562000010575f80fd5b506040516200368a3803806200368a833981810160405281019062000036919062000403565b8383815f9081620000489190620006e7565b5080600190816200005a9190620006e7565b505050620000715f801b336200009e60201b60201c565b508163ffffffff1660808163ffffffff16815250508060ff1660a08160ff168152505050505050620007cb565b5f620000b183836200019a60201b60201c565b6200019057600160065f8581526020019081526020015f205f015f8473ffffffffffffffffffffffffffffffffffffffff1673ffffffffffffffffffffffffffffffffffffffff1681526020019081526020015f205f6101000a81548160ff0219169083151502179055506200012c620001fe60201b60201c565b73ffffffffffffffffffffffffffffffffffffffff168273ffffffffffffffffffffffffffffffffffffffff16847f2f8788117e7eff1d82e926ec794901d17c78024a50270940304540a733656f0d60405160405180910390a46001905062000194565b5f90505b92915050565b5f60065f8481526020019081526020015f205f015f8373ffffffffffffffffffffffffffffffffffffffff1673ffffffffffffffffffffffffffffffffffffffff1681526020019081526020015f205f9054906101000a900460ff16905092915050565b5f33905090565b5f604051905090565b5f80fd5b5f80fd5b5f80fd5b5f80fd5b5f601f19601f8301169050919050565b7f4e487b71000000000000000000000000000000000000000000000000000000005f52604160045260245ffd5b62000266826200021e565b810181811067ffffffffffffffff821117156200028857620002876200022e565b5b80604052505050565b5f6200029c62000205565b9050620002aa82826200025b565b919050565b5f67ffffffffffffffff821115620002cc57620002cb6200022e565b5b620002d7826200021e565b9050602081019050919050565b5f5b8381101562000303578082015181840152602081019050620002e6565b5f8484015250505050565b5f620003246200031e84620002af565b62000291565b9050828152602081018484840111156200034357620003426200021a565b5b62000350848285620002e4565b509392505050565b5f82601f8301126200036f576200036e62000216565b5b8151620003818482602086016200030e565b91505092915050565b5f63ffffffff82169050919050565b620003a4816200038a565b8114620003af575f80fd5b50565b5f81519050620003c28162000399565b92915050565b5f60ff82169050919050565b620003df81620003c8565b8114620003ea575f80fd5b50565b5f81519050620003fd81620003d4565b92915050565b5f805f80608085870312156200041e576200041d6200020e565b5b5f85015167ffffffffffffffff8111156200043e576200043d62000212565b5b6200044c8782880162000358565b945050602085015167ffffffffffffffff81111562000470576200046f62000212565b5b6200047e8782880162000358565b93505060406200049187828801620003b2565b9250506060620004a487828801620003ed565b91505092959194509250565b5f81519050919050565b7f4e487b71000000000000000000000000000000000000000000000000000000005f52602260045260245ffd5b5f6002820490506001821680620004ff57607f821691505b602082108103620005155762000514620004ba565b5b50919050565b5f819050815f5260205f209050919050565b5f6020601f8301049050919050565b5f82821b905092915050565b5f60088302620005797fffffffffffffffffffffffffffffffffffffffffffffffffffffffffffffffff826200053c565b6200058586836200053c565b95508019841693508086168417925050509392505050565b5f819050919050565b5f819050919050565b5f620005cf620005c9620005c3846200059d565b620005a6565b6200059d565b9050919050565b5f819050919050565b620005ea83620005af565b62000602620005f982620005d6565b84845462000548565b825550505050565b5f90565b620006186200060a565b62000625818484620005df565b505050565b5b818110156200064c57620006405f826200060e565b6001810190506200062b565b5050565b601f8211156200069b5762000665816200051b565b62000670846200052d565b8101602085101562000680578190505b620006986200068f856200052d565b8301826200062a565b50505b505050565b5f82821c905092915050565b5f620006bd5f1984600802620006a0565b1980831691505092915050565b5f620006d78383620006ac565b9150826002028217905092915050565b620006f282620004b0565b67ffffffffffffffff8111156200070e576200070d6200022e565b5b6200071a8254620004e7565b6200072782828562000650565b5f60209050601f8311600181146200075d575f841562000748578287015190505b620007548582620006ca565b865550620007c3565b601f1984166200076d866200051b565b5f5b8281101562000796578489015182556001820191506020850194506020810190506200076f565b86831015620007b65784890151620007b2601f891682620006ac565b8355505b6001600288020188555050505b505050505050565b60805160a051612e8f620007fb5f395f818161109201526113b801525f8181610ccd01526114530152612e8f5ff3fe608060405234801561000f575f80fd5b50600436106101ed575f3560e01c80637a997ab71161010d578063b88d4fde116100a0578063e43252d71161006f578063e43252d7146105fe578063e985e9c51461061a578063f0565b661461064a578063f37d238f14610668576101ed565b8063b88d4fde14610566578063c11d636914610582578063c87b56dd146105b2578063d547741f146105e2576101ed565b806394b86711116100dc57806394b86711146104f057806395d89b411461050e578063a217fddf1461052c578063a22cb4651461054a576101ed565b80637a997ab7146104555780638ab1d681146104735780638c7a63ae1461048f57806391d14854146104c0576101ed565b8063248a9ca31161018557806342842e0e1161015457806342842e0e146103bb5780636352211e146103d757806370824c5c1461040757806370a0823114610425576101ed565b8063248a9ca3146103235780632f2ff15d1461035357806336568abe1461036f5780633af32abf1461038b576101ed565b806309141a7c116101c157806309141a7c1461029f578063095ea7b3146102cf5780631fef4279146102eb57806323b872dd14610307576101ed565b80623a4a0f146101f157806301ffc9a71461022157806306fdde0314610251578063081812fc1461026f575b5f80fd5b61020b60048036038101906102069190612395565b610684565b60405161021891906123db565b60405180910390f35b61023b60048036038101906102369190612449565b6106ad565b604051610248919061248e565b60405180910390f35b6102596106be565b6040516102669190612531565b60405180910390f35b61028960048036038101906102849190612395565b61074d565b6040516102969190612590565b60405180910390f35b6102b960048036038101906102b491906125d3565b610768565b6040516102c6919061248e565b60405180910390f35b6102e960048036038101906102e491906125fe565b61079a565b005b610305600480360381019061030091906125d3565b6107b0565b005b610321600480360381019061031c919061263c565b610859565b005b61033d600480360381019061033891906126bf565b6109ce565b60405161034a91906126f9565b60405180910390f35b61036d60048036038101906103689190612712565b6109eb565b005b61038960048036038101906103849190612712565b610a0d565b005b6103a560048036038101906103a091906125d3565b610a88565b6040516103b2919061248e565b60405180910390f35b6103d560048036038101906103d0919061263c565b610aba565b005b6103f160048036038101906103ec9190612395565b610ad9565b6040516103fe9190612590565b60405180910390f35b61040f610aea565b60405161041c91906126f9565b60405180910390f35b61043f600480360381019061043a91906125d3565b610b0e565b60405161044c919061275f565b60405180910390f35b61045d610bc4565b60405161046a91906126f9565b60405180910390f35b61048d600480360381019061048891906125d3565b610be8565b005b6104a960048036038101906104a49190612395565b610c22565b6040516104b7929190612796565b60405180910390f35b6104da60048036038101906104d59190612712565b610c66565b6040516104e7919061248e565b60405180910390f35b6104f8610cca565b60405161050591906127bd565b60405180910390f35b610516610cf1565b6040516105239190612531565b60405180910390f35b610534610d81565b60405161054191906126f9565b60405180910390f35b610564600480360381019061055f9190612800565b610d87565b005b610580600480360381019061057b919061296a565b610d9d565b005b61059c60048036038101906105979190612395565b610f14565b6040516105a991906127bd565b60405180910390f35b6105cc60048036038101906105c79190612395565b610f3f565b6040516105d99190612531565b60405180910390f35b6105fc60048036038101906105f79190612712565b610fa5565b005b610618600480360381019061061391906125d3565b610fc7565b005b610634600480360381019061062f91906129ea565b611001565b604051610641919061248e565b60405180910390f35b61065261108f565b60405161065f91906123db565b60405180910390f35b610682600480360381019061067d91906125d3565b6110b6565b005b5f60075f8381526020019081526020015f205f0160049054906101000a900460ff169050919050565b5f6106b7826110f0565b9050919050565b60605f80546106cc90612a55565b80601f01602080910402602001604051908101604052809291908181526020018280546106f890612a55565b80156107435780601f1061071a57610100808354040283529160200191610743565b820191905f5260205f20905b81548152906001019060200180831161072657829003601f168201915b5050505050905090565b5f61075782611169565b50610761826111ef565b9050919050565b5f6107937f797343f8d6a29aafeb3aaf0910a8973e0081c60c2f6c1f775cd9f76ea348fc1e83610c66565b9050919050565b6107ac82826107a7611228565b61122f565b5050565b5f801b6107bc81611241565b5f73ffffffffffffffffffffffffffffffffffffffff168273ffffffffffffffffffffffffffffffffffffffff160361082a576040517f08c379a000000000000000000000000000000000000000000000000000000000815260040161082190612acf565b60405180910390fd5b6108547f797343f8d6a29aafeb3aaf0910a8973e0081c60c2f6c1f775cd9f76ea348fc1e83611255565b505050565b5f3373ffffffffffffffffffffffffffffffffffffffff163b1180156108a657506108a47f797343f8d6a29aafeb3aaf0910a8973e0081c60c2f6c1f775cd9f76ea348fc1e33610c66565b155b156108e6576040517f08c379a00000000000000000000000000000000000000000000000000000000081526004016108dd90612b5d565b60405180910390fd5b6108f183838361133f565b6108fc8383836114dc565b6109267fdc72ed553f2544c34465af23b847953efeb813428162d767f9ba5f4013be676083610c66565b15801561095a57506109587fdc72ed553f2544c34465af23b847953efeb813428162d767f9ba5f4013be676084610c66565b155b156109c9575f60075f8381526020019081526020015f20905043815f015f6101000a81548163ffffffff021916908363ffffffff160217905550805f01600481819054906101000a900460ff168092919060010191906101000a81548160ff021916908360ff16021790555050505b505050565b5f60065f8381526020019081526020015f20600101549050919050565b6109f4826109ce565b6109fd81611241565b610a078383611255565b50505050565b610a15611228565b73ffffffffffffffffffffffffffffffffffffffff168173ffffffffffffffffffffffffffffffffffffffff1614610a79576040517f6697b23200000000000000000000000000000000000000000000000000000000815260040160405180910390fd5b610a8382826115db565b505050565b5f610ab37fdc72ed553f2544c34465af23b847953efeb813428162d767f9ba5f4013be676083610c66565b9050919050565b610ad483838360405180602001604052805f815250610d9d565b505050565b5f610ae382611169565b9050919050565b7f797343f8d6a29aafeb3aaf0910a8973e0081c60c2f6c1f775cd9f76ea348fc1e81565b5f8073ffffffffffffffffffffffffffffffffffffffff168273ffffffffffffffffffffffffffffffffffffffff1603610b7f575f6040517f89c62b64000000000000000000000000000000000000000000000000000000008152600401610b769190612590565b60405180910390fd5b60035f8373ffffffffffffffffffffffffffffffffffffffff1673ffffffffffffffffffffffffffffffffffffffff1681526020019081526020015f20549050919050565b7fdc72ed553f2544c34465af23b847953efeb813428162d767f9ba5f4013be676081565b5f801b610bf481611241565b610c1e7fdc72ed553f2544c34465af23b847953efeb813428162d767f9ba5f4013be676083610fa5565b5050565b5f805f60075f8581526020019081526020015f209050805f015f9054906101000a900463ffffffff16815f0160049054906101000a900460ff169250925050915091565b5f60065f8481526020019081526020015f205f015f8373ffffffffffffffffffffffffffffffffffffffff1673ffffffffffffffffffffffffffffffffffffffff1681526020019081526020015f205f9054906101000a900460ff16905092915050565b5f7f0000000000000000000000000000000000000000000000000000000000000000905090565b606060018054610d0090612a55565b80601f0160208091040260200160405190810160405280929190818152602001828054610d2c90612a55565b8015610d775780601f10610d4e57610100808354040283529160200191610d77565b820191905f5260205f20905b815481529060010190602001808311610d5a57829003601f168201915b5050505050905090565b5f801b81565b610d99610d92611228565b83836116c5565b5050565b5f3373ffffffffffffffffffffffffffffffffffffffff163b118015610dea5750610de87f797343f8d6a29aafeb3aaf0910a8973e0081c60c2f6c1f775cd9f76ea348fc1e33610c66565b155b15610e2a576040517f08c379a0000000000000000000000000000000000000000000000000000000008152600401610e2190612b5d565b60405180910390fd5b610e3584848461133f565b610e418484848461182e565b610e6b7fdc72ed553f2544c34465af23b847953efeb813428162d767f9ba5f4013be676084610c66565b158015610e9f5750610e9d7fdc72ed553f2544c34465af23b847953efeb813428162d767f9ba5f4013be676085610c66565b155b15610f0e575f60075f8481526020019081526020015f20905043815f015f6101000a81548163ffffffff021916908363ffffffff160217905550805f01600481819054906101000a900460ff168092919060010191906101000a81548160ff021916908360ff16021790555050505b50505050565b5f60075f8381526020019081526020015f205f015f9054906101000a900463ffffffff169050919050565b6060610f4a82611169565b505f610f54611853565b90505f815111610f725760405180602001604052805f815250610f9d565b80610f7c84611869565b604051602001610f8d929190612bb5565b6040516020818303038152906040525b915050919050565b610fae826109ce565b610fb781611241565b610fc183836115db565b50505050565b5f801b610fd381611241565b610ffd7fdc72ed553f2544c34465af23b847953efeb813428162d767f9ba5f4013be6760836109eb565b5050565b5f60055f8473ffffffffffffffffffffffffffffffffffffffff1673ffffffffffffffffffffffffffffffffffffffff1681526020019081526020015f205f8373ffffffffffffffffffffffffffffffffffffffff1673ffffffffffffffffffffffffffffffffffffffff1681526020019081526020015f205f9054906101000a900460ff16905092915050565b5f7f0000000000000000000000000000000000000000000000000000000000000000905090565b5f801b6110c281611241565b6110ec7f797343f8d6a29aafeb3aaf0910a8973e0081c60c2f6c1f775cd9f76ea348fc1e83610fa5565b5050565b5f7f7965db0b000000000000000000000000000000000000000000000000000000007bffffffffffffffffffffffffffffffffffffffffffffffffffffffff1916827bffffffffffffffffffffffffffffffffffffffffffffffffffffffff19161480611162575061116182611933565b5b9050919050565b5f8061117483611a14565b90505f73ffffffffffffffffffffffffffffffffffffffff168173ffffffffffffffffffffffffffffffffffffffff16036111e657826040517f7e2732890000000000000000000000000000000000000000000000000000000081526004016111dd919061275f565b60405180910390fd5b80915050919050565b5f60045f8381526020019081526020015f205f9054906101000a900473ffffffffffffffffffffffffffffffffffffffff169050919050565b5f33905090565b61123c8383836001611a4d565b505050565b6112528161124d611228565b611c0c565b50565b5f6112608383610c66565b61133557600160065f8581526020019081526020015f205f015f8473ffffffffffffffffffffffffffffffffffffffff1673ffffffffffffffffffffffffffffffffffffffff1681526020019081526020015f205f6101000a81548160ff0219169083151502179055506112d2611228565b73ffffffffffffffffffffffffffffffffffffffff168273ffffffffffffffffffffffffffffffffffffffff16847f2f8788117e7eff1d82e926ec794901d17c78024a50270940304540a733656f0d60405160405180910390a460019050611339565b5f90505b92915050565b6113697fdc72ed553f2544c34465af23b847953efeb813428162d767f9ba5f4013be676084610c66565b15801561139d575061139b7fdc72ed553f2544c34465af23b847953efeb813428162d767f9ba5f4013be676083610c66565b155b156114d7575f60075f8381526020019081526020015f2090507f000000000000000000000000000000000000000000000000000000000000000060ff16815f0160049054906101000a900460ff1660ff161061142e576040517f08c379a000000000000000000000000000000000000000000000000000000000815260040161142590612c48565b60405180910390fd5b5f815f015f9054906101000a900463ffffffff1663ffffffff161415801561149557507f000000000000000000000000000000000000000000000000000000000000000063ffffffff16815f015f9054906101000a900463ffffffff16430363ffffffff16105b156114d5576040517f08c379a00000000000000000000000000000000000000000000000000000000081526004016114cc90612cb0565b60405180910390fd5b505b505050565b5f73ffffffffffffffffffffffffffffffffffffffff168273ffffffffffffffffffffffffffffffffffffffff160361154c575f6040517f64a0ae920000000000000000000000000000000000000000000000000000000081526004016115439190612590565b60405180910390fd5b5f61155f838361155a611228565b611c5d565b90508373ffffffffffffffffffffffffffffffffffffffff168173ffffffffffffffffffffffffffffffffffffffff16146115d5578382826040517f64283d7b0000000000000000000000000000000000000000000000000000000081526004016115cc93929190612cce565b60405180910390fd5b50505050565b5f6115e68383610c66565b156116bb575f60065f8581526020019081526020015f205f015f8473ffffffffffffffffffffffffffffffffffffffff1673ffffffffffffffffffffffffffffffffffffffff1681526020019081526020015f205f6101000a81548160ff021916908315150217905550611658611228565b73ffffffffffffffffffffffffffffffffffffffff168273ffffffffffffffffffffffffffffffffffffffff16847ff6391f5c32d9c69d2a47ea670b442974b53935d1edc7fd64eb21e047a839171b60405160405180910390a4600190506116bf565b5f90505b92915050565b5f73ffffffffffffffffffffffffffffffffffffffff168273ffffffffffffffffffffffffffffffffffffffff160361173557816040517f5b08ba1800000000000000000000000000000000000000000000000000000000815260040161172c9190612590565b60405180910390fd5b8060055f8573ffffffffffffffffffffffffffffffffffffffff1673ffffffffffffffffffffffffffffffffffffffff1681526020019081526020015f205f8473ffffffffffffffffffffffffffffffffffffffff1673ffffffffffffffffffffffffffffffffffffffff1681526020019081526020015f205f6101000a81548160ff0219169083151502179055508173ffffffffffffffffffffffffffffffffffffffff168373ffffffffffffffffffffffffffffffffffffffff167f17307eab39ab6107e8899845ad3d59bd9653f200f220920489ca2b5937696c3183604051611821919061248e565b60405180910390a3505050565b611839848484610859565b61184d611844611228565b85858585611e68565b50505050565b606060405180602001604052805f815250905090565b60605f600161187784612014565b0190505f8167ffffffffffffffff81111561189557611894612846565b5b6040519080825280601f01601f1916602001820160405280156118c75781602001600182028036833780820191505090505b5090505f82602001820190505b600115611928578080600190039150507f3031323334353637383961626364656600000000000000000000000000000000600a86061a8153600a858161191d5761191c612d03565b5b0494505f85036118d4575b819350505050919050565b5f7f80ac58cd000000000000000000000000000000000000000000000000000000007bffffffffffffffffffffffffffffffffffffffffffffffffffffffff1916827bffffffffffffffffffffffffffffffffffffffffffffffffffffffff191614806119fd57507f5b5e139f000000000000000000000000000000000000000000000000000000007bffffffffffffffffffffffffffffffffffffffffffffffffffffffff1916827bffffffffffffffffffffffffffffffffffffffffffffffffffffffff1916145b80611a0d5750611a0c82612165565b5b9050919050565b5f60025f8381526020019081526020015f205f9054906101000a900473ffffffffffffffffffffffffffffffffffffffff169050919050565b8080611a8557505f73ffffffffffffffffffffffffffffffffffffffff168273ffffffffffffffffffffffffffffffffffffffff1614155b15611bb7575f611a9484611169565b90505f73ffffffffffffffffffffffffffffffffffffffff168373ffffffffffffffffffffffffffffffffffffffff1614158015611afe57508273ffffffffffffffffffffffffffffffffffffffff168173ffffffffffffffffffffffffffffffffffffffff1614155b8015611b115750611b0f8184611001565b155b15611b5357826040517fa9fbf51f000000000000000000000000000000000000000000000000000000008152600401611b4a9190612590565b60405180910390fd5b8115611bb557838573ffffffffffffffffffffffffffffffffffffffff168273ffffffffffffffffffffffffffffffffffffffff167f8c5be1e5ebec7d5bd14f71427d1e84f3dd0314c0f7b2291e5b200ac8c7c3b92560405160405180910390a45b505b8360045f8581526020019081526020015f205f6101000a81548173ffffffffffffffffffffffffffffffffffffffff021916908373ffffffffffffffffffffffffffffffffffffffff16021790555050505050565b611c168282610c66565b611c595780826040517fe2517d3f000000000000000000000000000000000000000000000000000000008152600401611c50929190612d30565b60405180910390fd5b5050565b5f80611c6884611a14565b90505f73ffffffffffffffffffffffffffffffffffffffff168373ffffffffffffffffffffffffffffffffffffffff1614611ca957611ca88184866121ce565b5b5f73ffffffffffffffffffffffffffffffffffffffff168173ffffffffffffffffffffffffffffffffffffffff1614611d3457611ce85f855f80611a4d565b600160035f8373ffffffffffffffffffffffffffffffffffffffff1673ffffffffffffffffffffffffffffffffffffffff1681526020019081526020015f205f82825403925050819055505b5f73ffffffffffffffffffffffffffffffffffffffff168573ffffffffffffffffffffffffffffffffffffffff1614611db357600160035f8773ffffffffffffffffffffffffffffffffffffffff1673ffffffffffffffffffffffffffffffffffffffff1681526020019081526020015f205f82825401925050819055505b8460025f8681526020019081526020015f205f6101000a81548173ffffffffffffffffffffffffffffffffffffffff021916908373ffffffffffffffffffffffffffffffffffffffff160217905550838573ffffffffffffffffffffffffffffffffffffffff168273ffffffffffffffffffffffffffffffffffffffff167fddf252ad1be2c89b69c2b068fc378daa952ba7f163c4a11628f55a4df523b3ef60405160405180910390a4809150509392505050565b5f8373ffffffffffffffffffffffffffffffffffffffff163b111561200d578273ffffffffffffffffffffffffffffffffffffffff1663150b7a02868685856040518563ffffffff1660e01b8152600401611ec69493929190612da9565b6020604051808303815f875af1925050508015611f0157506040513d601f19601f82011682018060405250810190611efe9190612e07565b60015b611f82573d805f8114611f2f576040519150601f19603f3d011682016040523d82523d5f602084013e611f34565b606091505b505f815103611f7a57836040517f64a0ae92000000000000000000000000000000000000000000000000000000008152600401611f719190612590565b60405180910390fd5b805181602001fd5b63150b7a0260e01b7bffffffffffffffffffffffffffffffffffffffffffffffffffffffff1916817bffffffffffffffffffffffffffffffffffffffffffffffffffffffff19161461200b57836040517f64a0ae920000000000000000000000000000000000000000000000000000000081526004016120029190612590565b60405180910390fd5b505b5050505050565b5f805f90507a184f03e93ff9f4daa797ed6e38ed64bf6a1f0100000000000000008310612070577a184f03e93ff9f4daa797ed6e38ed64bf6a1f010000000000000000838161206657612065612d03565b5b0492506040810190505b6d04ee2d6d415b85acef810000000083106120ad576d04ee2d6d415b85acef810000000083816120a3576120a2612d03565b5b0492506020810190505b662386f26fc1000083106120dc57662386f26fc1000083816120d2576120d1612d03565b5b0492506010810190505b6305f5e1008310612105576305f5e10083816120fb576120fa612d03565b5b0492506008810190505b612710831061212a5761271083816121205761211f612d03565b5b0492506004810190505b6064831061214d576064838161214357612142612d03565b5b0492506002810190505b600a831061215c576001810190505b80915050919050565b5f7f01ffc9a7000000000000000000000000000000000000000000000000000000007bffffffffffffffffffffffffffffffffffffffffffffffffffffffff1916827bffffffffffffffffffffffffffffffffffffffffffffffffffffffff1916149050919050565b6121d9838383612291565b61228c575f73ffffffffffffffffffffffffffffffffffffffff168373ffffffffffffffffffffffffffffffffffffffff160361224d57806040517f7e273289000000000000000000000000000000000000000000000000000000008152600401612244919061275f565b60405180910390fd5b81816040517f177e802f000000000000000000000000000000000000000000000000000000008152600401612283929190612e32565b60405180910390fd5b505050565b5f8073ffffffffffffffffffffffffffffffffffffffff168373ffffffffffffffffffffffffffffffffffffffff161415801561234857508273ffffffffffffffffffffffffffffffffffffffff168473ffffffffffffffffffffffffffffffffffffffff16148061230957506123088484611001565b5b8061234757508273ffffffffffffffffffffffffffffffffffffffff1661232f836111ef565b73ffffffffffffffffffffffffffffffffffffffff16145b5b90509392505050565b5f604051905090565b5f80fd5b5f80fd5b5f819050919050565b61237481612362565b811461237e575f80fd5b50565b5f8135905061238f8161236b565b92915050565b5f602082840312156123aa576123a961235a565b5b5f6123b784828501612381565b91505092915050565b5f60ff82169050919050565b6123d5816123c0565b82525050565b5f6020820190506123ee5f8301846123cc565b92915050565b5f7fffffffff0000000000000000000000000000000000000000000000000000000082169050919050565b612428816123f4565b8114612432575f80fd5b50565b5f813590506124438161241f565b92915050565b5f6020828403121561245e5761245d61235a565b5b5f61246b84828501612435565b91505092915050565b5f8115159050919050565b61248881612474565b82525050565b5f6020820190506124a15f83018461247f565b92915050565b5f81519050919050565b5f82825260208201905092915050565b5f5b838110156124de5780820151818401526020810190506124c3565b5f8484015250505050565b5f601f19601f8301169050919050565b5f612503826124a7565b61250d81856124b1565b935061251d8185602086016124c1565b612526816124e9565b840191505092915050565b5f6020820190508181035f83015261254981846124f9565b905092915050565b5f73ffffffffffffffffffffffffffffffffffffffff82169050919050565b5f61257a82612551565b9050919050565b61258a81612570565b82525050565b5f6020820190506125a35f830184612581565b92915050565b6125b281612570565b81146125bc575f80fd5b50565b5f813590506125cd816125a9565b92915050565b5f602082840312156125e8576125e761235a565b5b5f6125f5848285016125bf565b91505092915050565b5f80604083850312156126145761261361235a565b5b5f612621858286016125bf565b925050602061263285828601612381565b9150509250929050565b5f805f606084860312156126535761265261235a565b5b5f612660868287016125bf565b9350506020612671868287016125bf565b925050604061268286828701612381565b9150509250925092565b5f819050919050565b61269e8161268c565b81146126a8575f80fd5b50565b5f813590506126b981612695565b92915050565b5f602082840312156126d4576126d361235a565b5b5f6126e1848285016126ab565b91505092915050565b6126f38161268c565b82525050565b5f60208201905061270c5f8301846126ea565b92915050565b5f80604083850312156127285761272761235a565b5b5f612735858286016126ab565b9250506020612746858286016125bf565b9150509250929050565b61275981612362565b82525050565b5f6020820190506127725f830184612750565b92915050565b5f63ffffffff82169050919050565b61279081612778565b82525050565b5f6040820190506127a95f830185612787565b6127b660208301846123cc565b9392505050565b5f6020820190506127d05f830184612787565b92915050565b6127df81612474565b81146127e9575f80fd5b50565b5f813590506127fa816127d6565b92915050565b5f80604083850312156128165761281561235a565b5b5f612823858286016125bf565b9250506020612834858286016127ec565b9150509250929050565b5f80fd5b5f80fd5b7f4e487b71000000000000000000000000000000000000000000000000000000005f52604160045260245ffd5b61287c826124e9565b810181811067ffffffffffffffff8211171561289b5761289a612846565b5b80604052505050565b5f6128ad612351565b90506128b98282612873565b919050565b5f67ffffffffffffffff8211156128d8576128d7612846565b5b6128e1826124e9565b9050602081019050919050565b828183375f83830152505050565b5f61290e612909846128be565b6128a4565b90508281526020810184848401111561292a57612929612842565b5b6129358482856128ee565b509392505050565b5f82601f8301126129515761295061283e565b5b81356129618482602086016128fc565b91505092915050565b5f805f80608085870312156129825761298161235a565b5b5f61298f878288016125bf565b94505060206129a0878288016125bf565b93505060406129b187828801612381565b925050606085013567ffffffffffffffff8111156129d2576129d161235e565b5b6129de8782880161293d565b91505092959194509250565b5f8060408385031215612a00576129ff61235a565b5b5f612a0d858286016125bf565b9250506020612a1e858286016125bf565b9150509250929050565b7f4e487b71000000000000000000000000000000000000000000000000000000005f52602260045260245ffd5b5f6002820490506001821680612a6c57607f821691505b602082108103612a7f57612a7e612a28565b5b50919050565b7f496e76616c696420706c6174666f726d206164647265737300000000000000005f82015250565b5f612ab96018836124b1565b9150612ac482612a85565b602082019050919050565b5f6020820190508181035f830152612ae681612aad565b9050919050565b7f4552433732313a204f6e6c7920706c6174666f726d20636f6e747261637420615f8201527f6c6c6f7765640000000000000000000000000000000000000000000000000000602082015250565b5f612b476026836124b1565b9150612b5282612aed565b604082019050919050565b5f6020820190508181035f830152612b7481612b3b565b9050919050565b5f81905092915050565b5f612b8f826124a7565b612b998185612b7b565b9350612ba98185602086016124c1565b80840191505092915050565b5f612bc08285612b85565b9150612bcc8284612b85565b91508190509392505050565b7f4552433732313a20457863656564206d6178696d756d207472616e73666572205f8201527f636f756e74000000000000000000000000000000000000000000000000000000602082015250565b5f612c326025836124b1565b9150612c3d82612bd8565b604082019050919050565b5f6020820190508181035f830152612c5f81612c26565b9050919050565b7f4552433732313a205472616e7366657220746f6f20736f6f6e000000000000005f82015250565b5f612c9a6019836124b1565b9150612ca582612c66565b602082019050919050565b5f6020820190508181035f830152612cc781612c8e565b9050919050565b5f606082019050612ce15f830186612581565b612cee6020830185612750565b612cfb6040830184612581565b949350505050565b7f4e487b71000000000000000000000000000000000000000000000000000000005f52601260045260245ffd5b5f604082019050612d435f830185612581565b612d5060208301846126ea565b9392505050565b5f81519050919050565b5f82825260208201905092915050565b5f612d7b82612d57565b612d858185612d61565b9350612d958185602086016124c1565b612d9e816124e9565b840191505092915050565b5f608082019050612dbc5f830187612581565b612dc96020830186612581565b612dd66040830185612750565b8181036060830152612de88184612d71565b905095945050505050565b5f81519050612e018161241f565b92915050565b5f60208284031215612e1c57612e1b61235a565b5b5f612e2984828501612df3565b91505092915050565b5f604082019050612e455f830185612581565b612e526020830184612750565b939250505056fea2646970667358221220edc84a09f18c5d253158d4c661a2ae523b556f6bdc600266dec9f82b0f6b250764736f6c63430008140033",
			"opcodes": "PUSH1 0xC0 PUSH1 0x40 MSTORE CALLVALUE DUP1 ISZERO PUSH3 0x10 JUMPI PUSH0 DUP1 REVERT JUMPDEST POP PUSH1 0x40 MLOAD PUSH3 0x368A CODESIZE SUB DUP1 PUSH3 0x368A DUP4 CODECOPY DUP2 DUP2 ADD PUSH1 0x40 MSTORE DUP2 ADD SWAP1 PUSH3 0x36 SWAP2 SWAP1 PUSH3 0x403 JUMP JUMPDEST DUP4 DUP4 DUP2 PUSH0 SWAP1 DUP2 PUSH3 0x48 SWAP2 SWAP1 PUSH3 0x6E7 JUMP JUMPDEST POP DUP1 PUSH1 0x1 SWAP1 DUP2 PUSH3 0x5A SWAP2 SWAP1 PUSH3 0x6E7 JUMP JUMPDEST POP POP POP PUSH3 0x71 PUSH0 DUP1 SHL CALLER PUSH3 0x9E PUSH1 0x20 SHL PUSH1 0x20 SHR JUMP JUMPDEST POP DUP2 PUSH4 0xFFFFFFFF AND PUSH1 0x80 DUP2 PUSH4 0xFFFFFFFF AND DUP2 MSTORE POP POP DUP1 PUSH1 0xFF AND PUSH1 0xA0 DUP2 PUSH1 0xFF AND DUP2 MSTORE POP POP POP POP POP POP PUSH3 0x7CB JUMP JUMPDEST PUSH0 PUSH3 0xB1 DUP4 DUP4 PUSH3 0x19A PUSH1 0x20 SHL PUSH1 0x20 SHR JUMP JUMPDEST PUSH3 0x190 JUMPI PUSH1 0x1 PUSH1 0x6 PUSH0 DUP6 DUP2 MSTORE PUSH1 0x20 ADD SWAP1 DUP2 MSTORE PUSH1 0x20 ADD PUSH0 KECCAK256 PUSH0 ADD PUSH0 DUP5 PUSH20 0xFFFFFFFFFFFFFFFFFFFFFFFFFFFFFFFFFFFFFFFF AND PUSH20 0xFFFFFFFFFFFFFFFFFFFFFFFFFFFFFFFFFFFFFFFF AND DUP2 MSTORE PUSH1 0x20 ADD SWAP1 DUP2 MSTORE PUSH1 0x20 ADD PUSH0 KECCAK256 PUSH0 PUSH2 0x100 EXP DUP2 SLOAD DUP2 PUSH1 0xFF MUL NOT AND SWAP1 DUP4 ISZERO ISZERO MUL OR SWAP1 SSTORE POP PUSH3 0x12C PUSH3 0x1FE PUSH1 0x20 SHL PUSH1 0x20 SHR JUMP JUMPDEST PUSH20 0xFFFFFFFFFFFFFFFFFFFFFFFFFFFFFFFFFFFFFFFF AND DUP3 PUSH20 0xFFFFFFFFFFFFFFFFFFFFFFFFFFFFFFFFFFFFFFFF AND DUP5 PUSH32 0x2F8788117E7EFF1D82E926EC794901D17C78024A50270940304540A733656F0D PUSH1 0x40 MLOAD PUSH1 0x40 MLOAD DUP1 SWAP2 SUB SWAP1 LOG4 PUSH1 0x1 SWAP1 POP PUSH3 0x194 JUMP JUMPDEST PUSH0 SWAP1 POP JUMPDEST SWAP3 SWAP2 POP POP JUMP JUMPDEST PUSH0 PUSH1 0x6 PUSH0 DUP5 DUP2 MSTORE PUSH1 0x20 ADD SWAP1 DUP2 MSTORE PUSH1 0x20 ADD PUSH0 KECCAK256 PUSH0 ADD PUSH0 DUP4 PUSH20 0xFFFFFFFFFFFFFFFFFFFFFFFFFFFFFFFFFFFFFFFF AND PUSH20 0xFFFFFFFFFFFFFFFFFFFFFFFFFFFFFFFFFFFFFFFF AND DUP2 MSTORE PUSH1 0x20 ADD SWAP1 DUP2 MSTORE PUSH1 0x20 ADD PUSH0 KECCAK256 PUSH0 SWAP1 SLOAD SWAP1 PUSH2 0x100 EXP SWAP1 DIV PUSH1 0xFF AND SWAP1 POP SWAP3 SWAP2 POP POP JUMP JUMPDEST PUSH0 CALLER SWAP1 POP SWAP1 JUMP JUMPDEST PUSH0 PUSH1 0x40 MLOAD SWAP1 POP SWAP1 JUMP JUMPDEST PUSH0 DUP1 REVERT JUMPDEST PUSH0 DUP1 REVERT JUMPDEST PUSH0 DUP1 REVERT JUMPDEST PUSH0 DUP1 REVERT JUMPDEST PUSH0 PUSH1 0x1F NOT PUSH1 0x1F DUP4 ADD AND SWAP1 POP SWAP2 SWAP1 POP JUMP JUMPDEST PUSH32 0x4E487B7100000000000000000000000000000000000000000000000000000000 PUSH0 MSTORE PUSH1 0x41 PUSH1 0x4 MSTORE PUSH1 0x24 PUSH0 REVERT JUMPDEST PUSH3 0x266 DUP3 PUSH3 0x21E JUMP JUMPDEST DUP2 ADD DUP2 DUP2 LT PUSH8 0xFFFFFFFFFFFFFFFF DUP3 GT OR ISZERO PUSH3 0x288 JUMPI PUSH3 0x287 PUSH3 0x22E JUMP JUMPDEST JUMPDEST DUP1 PUSH1 0x40 MSTORE POP POP POP JUMP JUMPDEST PUSH0 PUSH3 0x29C PUSH3 0x205 JUMP JUMPDEST SWAP1 POP PUSH3 0x2AA DUP3 DUP3 PUSH3 0x25B JUMP JUMPDEST SWAP2 SWAP1 POP JUMP JUMPDEST PUSH0 PUSH8 0xFFFFFFFFFFFFFFFF DUP3 GT ISZERO PUSH3 0x2CC JUMPI PUSH3 0x2CB PUSH3 0x22E JUMP JUMPDEST JUMPDEST PUSH3 0x2D7 DUP3 PUSH3 0x21E JUMP JUMPDEST SWAP1 POP PUSH1 0x20 DUP2 ADD SWAP1 POP SWAP2 SWAP1 POP JUMP JUMPDEST PUSH0 JUMPDEST DUP4 DUP2 LT ISZERO PUSH3 0x303 JUMPI DUP1 DUP3 ADD MLOAD DUP2 DUP5 ADD MSTORE PUSH1 0x20 DUP2 ADD SWAP1 POP PUSH3 0x2E6 JUMP JUMPDEST PUSH0 DUP5 DUP5 ADD MSTORE POP POP POP POP JUMP JUMPDEST PUSH0 PUSH3 0x324 PUSH3 0x31E DUP5 PUSH3 0x2AF JUMP JUMPDEST PUSH3 0x291 JUMP JUMPDEST SWAP1 POP DUP3 DUP2 MSTORE PUSH1 0x20 DUP2 ADD DUP5 DUP5 DUP5 ADD GT ISZERO PUSH3 0x343 JUMPI PUSH3 0x342 PUSH3 0x21A JUMP JUMPDEST JUMPDEST PUSH3 0x350 DUP5 DUP3 DUP6 PUSH3 0x2E4 JUMP JUMPDEST POP SWAP4 SWAP3 POP POP POP JUMP JUMPDEST PUSH0 DUP3 PUSH1 0x1F DUP4 ADD SLT PUSH3 0x36F JUMPI PUSH3 0x36E PUSH3 0x216 JUMP JUMPDEST JUMPDEST DUP2 MLOAD PUSH3 0x381 DUP5 DUP3 PUSH1 0x20 DUP7 ADD PUSH3 0x30E JUMP JUMPDEST SWAP2 POP POP SWAP3 SWAP2 POP POP JUMP JUMPDEST PUSH0 PUSH4 0xFFFFFFFF DUP3 AND SWAP1 POP SWAP2 SWAP1 POP JUMP JUMPDEST PUSH3 0x3A4 DUP2 PUSH3 0x38A JUMP JUMPDEST DUP2 EQ PUSH3 0x3AF JUMPI PUSH0 DUP1 REVERT JUMPDEST POP JUMP JUMPDEST PUSH0 DUP2 MLOAD SWAP1 POP PUSH3 0x3C2 DUP2 PUSH3 0x399 JUMP JUMPDEST SWAP3 SWAP2 POP POP JUMP JUMPDEST PUSH0 PUSH1 0xFF DUP3 AND SWAP1 POP SWAP2 SWAP1 POP JUMP JUMPDEST PUSH3 0x3DF DUP2 PUSH3 0x3C8 JUMP JUMPDEST DUP2 EQ PUSH3 0x3EA JUMPI PUSH0 DUP1 REVERT JUMPDEST POP JUMP JUMPDEST PUSH0 DUP2 MLOAD SWAP1 POP PUSH3 0x3FD DUP2 PUSH3 0x3D4 JUMP JUMPDEST SWAP3 SWAP2 POP POP JUMP JUMPDEST PUSH0 DUP1 PUSH0 DUP1 PUSH1 0x80 DUP6 DUP8 SUB SLT ISZERO PUSH3 0x41E JUMPI PUSH3 0x41D PUSH3 0x20E JUMP JUMPDEST JUMPDEST PUSH0 DUP6 ADD MLOAD PUSH8 0xFFFFFFFFFFFFFFFF DUP2 GT ISZERO PUSH3 0x43E JUMPI PUSH3 0x43D PUSH3 0x212 JUMP JUMPDEST JUMPDEST PUSH3 0x44C DUP8 DUP3 DUP9 ADD PUSH3 0x358 JUMP JUMPDEST SWAP5 POP POP PUSH1 0x20 DUP6 ADD MLOAD PUSH8 0xFFFFFFFFFFFFFFFF DUP2 GT ISZERO PUSH3 0x470 JUMPI PUSH3 0x46F PUSH3 0x212 JUMP JUMPDEST JUMPDEST PUSH3 0x47E DUP8 DUP3 DUP9 ADD PUSH3 0x358 JUMP JUMPDEST SWAP4 POP POP PUSH1 0x40 PUSH3 0x491 DUP8 DUP3 DUP9 ADD PUSH3 0x3B2 JUMP JUMPDEST SWAP3 POP POP PUSH1 0x60 PUSH3 0x4A4 DUP8 DUP3 DUP9 ADD PUSH3 0x3ED JUMP JUMPDEST SWAP2 POP POP SWAP3 SWAP6 SWAP2 SWAP5 POP SWAP3 POP JUMP JUMPDEST PUSH0 DUP2 MLOAD SWAP1 POP SWAP2 SWAP1 POP JUMP JUMPDEST PUSH32 0x4E487B7100000000000000000000000000000000000000000000000000000000 PUSH0 MSTORE PUSH1 0x22 PUSH1 0x4 MSTORE PUSH1 0x24 PUSH0 REVERT JUMPDEST PUSH0 PUSH1 0x2 DUP3 DIV SWAP1 POP PUSH1 0x1 DUP3 AND DUP1 PUSH3 0x4FF JUMPI PUSH1 0x7F DUP3 AND SWAP2 POP JUMPDEST PUSH1 0x20 DUP3 LT DUP2 SUB PUSH3 0x515 JUMPI PUSH3 0x514 PUSH3 0x4BA JUMP JUMPDEST JUMPDEST POP SWAP2 SWAP1 POP JUMP JUMPDEST PUSH0 DUP2 SWAP1 POP DUP2 PUSH0 MSTORE PUSH1 0x20 PUSH0 KECCAK256 SWAP1 POP SWAP2 SWAP1 POP JUMP JUMPDEST PUSH0 PUSH1 0x20 PUSH1 0x1F DUP4 ADD DIV SWAP1 POP SWAP2 SWAP1 POP JUMP JUMPDEST PUSH0 DUP3 DUP3 SHL SWAP1 POP SWAP3 SWAP2 POP POP JUMP JUMPDEST PUSH0 PUSH1 0x8 DUP4 MUL PUSH3 0x579 PUSH32 0xFFFFFFFFFFFFFFFFFFFFFFFFFFFFFFFFFFFFFFFFFFFFFFFFFFFFFFFFFFFFFFFF DUP3 PUSH3 0x53C JUMP JUMPDEST PUSH3 0x585 DUP7 DUP4 PUSH3 0x53C JUMP JUMPDEST SWAP6 POP DUP1 NOT DUP5 AND SWAP4 POP DUP1 DUP7 AND DUP5 OR SWAP3 POP POP POP SWAP4 SWAP3 POP POP POP JUMP JUMPDEST PUSH0 DUP2 SWAP1 POP SWAP2 SWAP1 POP JUMP JUMPDEST PUSH0 DUP2 SWAP1 POP SWAP2 SWAP1 POP JUMP JUMPDEST PUSH0 PUSH3 0x5CF PUSH3 0x5C9 PUSH3 0x5C3 DUP5 PUSH3 0x59D JUMP JUMPDEST PUSH3 0x5A6 JUMP JUMPDEST PUSH3 0x59D JUMP JUMPDEST SWAP1 POP SWAP2 SWAP1 POP JUMP JUMPDEST PUSH0 DUP2 SWAP1 POP SWAP2 SWAP1 POP JUMP JUMPDEST PUSH3 0x5EA DUP4 PUSH3 0x5AF JUMP JUMPDEST PUSH3 0x602 PUSH3 0x5F9 DUP3 PUSH3 0x5D6 JUMP JUMPDEST DUP5 DUP5 SLOAD PUSH3 0x548 JUMP JUMPDEST DUP3 SSTORE POP POP POP POP JUMP JUMPDEST PUSH0 SWAP1 JUMP JUMPDEST PUSH3 0x618 PUSH3 0x60A JUMP JUMPDEST PUSH3 0x625 DUP2 DUP5 DUP5 PUSH3 0x5DF JUMP JUMPDEST POP POP POP JUMP JUMPDEST JUMPDEST DUP2 DUP2 LT ISZERO PUSH3 0x64C JUMPI PUSH3 0x640 PUSH0 DUP3 PUSH3 0x60E JUMP JUMPDEST PUSH1 0x1 DUP2 ADD SWAP1 POP PUSH3 0x62B JUMP JUMPDEST POP POP JUMP JUMPDEST PUSH1 0x1F DUP3 GT ISZERO PUSH3 0x69B JUMPI PUSH3 0x665 DUP2 PUSH3 0x51B JUMP JUMPDEST PUSH3 0x670 DUP5 PUSH3 0x52D JUMP JUMPDEST DUP2 ADD PUSH1 0x20 DUP6 LT ISZERO PUSH3 0x680 JUMPI DUP2 SWAP1 POP JUMPDEST PUSH3 0x698 PUSH3 0x68F DUP6 PUSH3 0x52D JUMP JUMPDEST DUP4 ADD DUP3 PUSH3 0x62A JUMP JUMPDEST POP POP JUMPDEST POP POP POP JUMP JUMPDEST PUSH0 DUP3 DUP3 SHR SWAP1 POP SWAP3 SWAP2 POP POP JUMP JUMPDEST PUSH0 PUSH3 0x6BD PUSH0 NOT DUP5 PUSH1 0x8 MUL PUSH3 0x6A0 JUMP JUMPDEST NOT DUP1 DUP4 AND SWAP2 POP POP SWAP3 SWAP2 POP POP JUMP JUMPDEST PUSH0 PUSH3 0x6D7 DUP4 DUP4 PUSH3 0x6AC JUMP JUMPDEST SWAP2 POP DUP3 PUSH1 0x2 MUL DUP3 OR SWAP1 POP SWAP3 SWAP2 POP POP JUMP JUMPDEST PUSH3 0x6F2 DUP3 PUSH3 0x4B0 JUMP JUMPDEST PUSH8 0xFFFFFFFFFFFFFFFF DUP2 GT ISZERO PUSH3 0x70E JUMPI PUSH3 0x70D PUSH3 0x22E JUMP JUMPDEST JUMPDEST PUSH3 0x71A DUP3 SLOAD PUSH3 0x4E7 JUMP JUMPDEST PUSH3 0x727 DUP3 DUP3 DUP6 PUSH3 0x650 JUMP JUMPDEST PUSH0 PUSH1 0x20 SWAP1 POP PUSH1 0x1F DUP4 GT PUSH1 0x1 DUP2 EQ PUSH3 0x75D JUMPI PUSH0 DUP5 ISZERO PUSH3 0x748 JUMPI DUP3 DUP8 ADD MLOAD SWAP1 POP JUMPDEST PUSH3 0x754 DUP6 DUP3 PUSH3 0x6CA JUMP JUMPDEST DUP7 SSTORE POP PUSH3 0x7C3 JUMP JUMPDEST PUSH1 0x1F NOT DUP5 AND PUSH3 0x76D DUP7 PUSH3 0x51B JUMP JUMPDEST PUSH0 JUMPDEST DUP3 DUP2 LT ISZERO PUSH3 0x796 JUMPI DUP5 DUP10 ADD MLOAD DUP3 SSTORE PUSH1 0x1 DUP3 ADD SWAP2 POP PUSH1 0x20 DUP6 ADD SWAP5 POP PUSH1 0x20 DUP2 ADD SWAP1 POP PUSH3 0x76F JUMP JUMPDEST DUP7 DUP4 LT ISZERO PUSH3 0x7B6 JUMPI DUP5 DUP10 ADD MLOAD PUSH3 0x7B2 PUSH1 0x1F DUP10 AND DUP3 PUSH3 0x6AC JUMP JUMPDEST DUP4 SSTORE POP JUMPDEST PUSH1 0x1 PUSH1 0x2 DUP9 MUL ADD DUP9 SSTORE POP POP POP JUMPDEST POP POP POP POP POP POP JUMP JUMPDEST PUSH1 0x80 MLOAD PUSH1 0xA0 MLOAD PUSH2 0x2E8F PUSH3 0x7FB PUSH0 CODECOPY PUSH0 DUP2 DUP2 PUSH2 0x1092 ADD MSTORE PUSH2 0x13B8 ADD MSTORE PUSH0 DUP2 DUP2 PUSH2 0xCCD ADD MSTORE PUSH2 0x1453 ADD MSTORE PUSH2 0x2E8F PUSH0 RETURN INVALID PUSH1 0x80 PUSH1 0x40 MSTORE CALLVALUE DUP1 ISZERO PUSH2 0xF JUMPI PUSH0 DUP1 REVERT JUMPDEST POP PUSH1 0x4 CALLDATASIZE LT PUSH2 0x1ED JUMPI PUSH0 CALLDATALOAD PUSH1 0xE0 SHR DUP1 PUSH4 0x7A997AB7 GT PUSH2 0x10D JUMPI DUP1 PUSH4 0xB88D4FDE GT PUSH2 0xA0 JUMPI DUP1 PUSH4 0xE43252D7 GT PUSH2 0x6F JUMPI DUP1 PUSH4 0xE43252D7 EQ PUSH2 0x5FE JUMPI DUP1 PUSH4 0xE985E9C5 EQ PUSH2 0x61A JUMPI DUP1 PUSH4 0xF0565B66 EQ PUSH2 0x64A JUMPI DUP1 PUSH4 0xF37D238F EQ PUSH2 0x668 JUMPI PUSH2 0x1ED JUMP JUMPDEST DUP1 PUSH4 0xB88D4FDE EQ PUSH2 0x566 JUMPI DUP1 PUSH4 0xC11D6369 EQ PUSH2 0x582 JUMPI DUP1 PUSH4 0xC87B56DD EQ PUSH2 0x5B2 JUMPI DUP1 PUSH4 0xD547741F EQ PUSH2 0x5E2 JUMPI PUSH2 0x1ED JUMP JUMPDEST DUP1 PUSH4 0x94B86711 GT PUSH2 0xDC JUMPI DUP1 PUSH4 0x94B86711 EQ PUSH2 0x4F0 JUMPI DUP1 PUSH4 0x95D89B41 EQ PUSH2 0x50E JUMPI DUP1 PUSH4 0xA217FDDF EQ PUSH2 0x52C JUMPI DUP1 PUSH4 0xA22CB465 EQ PUSH2 0x54A JUMPI PUSH2 0x1ED JUMP JUMPDEST DUP1 PUSH4 0x7A997AB7 EQ PUSH2 0x455 JUMPI DUP1 PUSH4 0x8AB1D681 EQ PUSH2 0x473 JUMPI DUP1 PUSH4 0x8C7A63AE EQ PUSH2 0x48F JUMPI DUP1 PUSH4 0x91D14854 EQ PUSH2 0x4C0 JUMPI PUSH2 0x1ED JUMP JUMPDEST DUP1 PUSH4 0x248A9CA3 GT PUSH2 0x185 JUMPI DUP1 PUSH4 0x42842E0E GT PUSH2 0x154 JUMPI DUP1 PUSH4 0x42842E0E EQ PUSH2 0x3BB JUMPI DUP1 PUSH4 0x6352211E EQ PUSH2 0x3D7 JUMPI DUP1 PUSH4 0x70824C5C EQ PUSH2 0x407 JUMPI DUP1 PUSH4 0x70A08231 EQ PUSH2 0x425 JUMPI PUSH2 0x1ED JUMP JUMPDEST DUP1 PUSH4 0x248A9CA3 EQ PUSH2 0x323 JUMPI DUP1 PUSH4 0x2F2FF15D EQ PUSH2 0x353 JUMPI DUP1 PUSH4 0x36568ABE EQ PUSH2 0x36F JUMPI DUP1 PUSH4 0x3AF32ABF EQ PUSH2 0x38B JUMPI PUSH2 0x1ED JUMP JUMPDEST DUP1 PUSH4 0x9141A7C GT PUSH2 0x1C1 JUMPI DUP1 PUSH4 0x9141A7C EQ PUSH2 0x29F JUMPI DUP1 PUSH4 0x95EA7B3 EQ PUSH2 0x2CF JUMPI DUP1 PUSH4 0x1FEF4279 EQ PUSH2 0x2EB JUMPI DUP1 PUSH4 0x23B872DD EQ PUSH2 0x307 JUMPI PUSH2 0x1ED JUMP JUMPDEST DUP1 PUSH3 0x3A4A0F EQ PUSH2 0x1F1 JUMPI DUP1 PUSH4 0x1FFC9A7 EQ PUSH2 0x221 JUMPI DUP1 PUSH4 0x6FDDE03 EQ PUSH2 0x251 JUMPI DUP1 PUSH4 0x81812FC EQ PUSH2 0x26F JUMPI JUMPDEST PUSH0 DUP1 REVERT JUMPDEST PUSH2 0x20B PUSH1 0x4 DUP1 CALLDATASIZE SUB DUP2 ADD SWAP1 PUSH2 0x206 SWAP2 SWAP1 PUSH2 0x2395 JUMP JUMPDEST PUSH2 0x684 JUMP JUMPDEST PUSH1 0x40 MLOAD PUSH2 0x218 SWAP2 SWAP1 PUSH2 0x23DB JUMP JUMPDEST PUSH1 0x40 MLOAD DUP1 SWAP2 SUB SWAP1 RETURN JUMPDEST PUSH2 0x23B PUSH1 0x4 DUP1 CALLDATASIZE SUB DUP2 ADD SWAP1 PUSH2 0x236 SWAP2 SWAP1 PUSH2 0x2449 JUMP JUMPDEST PUSH2 0x6AD JUMP JUMPDEST PUSH1 0x40 MLOAD PUSH2 0x248 SWAP2 SWAP1 PUSH2 0x248E JUMP JUMPDEST PUSH1 0x40 MLOAD DUP1 SWAP2 SUB SWAP1 RETURN JUMPDEST PUSH2 0x259 PUSH2 0x6BE JUMP JUMPDEST PUSH1 0x40 MLOAD PUSH2 0x266 SWAP2 SWAP1 PUSH2 0x2531 JUMP JUMPDEST PUSH1 0x40 MLOAD DUP1 SWAP2 SUB SWAP1 RETURN JUMPDEST PUSH2 0x289 PUSH1 0x4 DUP1 CALLDATASIZE SUB DUP2 ADD SWAP1 PUSH2 0x284 SWAP2 SWAP1 PUSH2 0x2395 JUMP JUMPDEST PUSH2 0x74D JUMP JUMPDEST PUSH1 0x40 MLOAD PUSH2 0x296 SWAP2 SWAP1 PUSH2 0x2590 JUMP JUMPDEST PUSH1 0x40 MLOAD DUP1 SWAP2 SUB SWAP1 RETURN JUMPDEST PUSH2 0x2B9 PUSH1 0x4 DUP1 CALLDATASIZE SUB DUP2 ADD SWAP1 PUSH2 0x2B4 SWAP2 SWAP1 PUSH2 0x25D3 JUMP JUMPDEST PUSH2 0x768 JUMP JUMPDEST PUSH1 0x40 MLOAD PUSH2 0x2C6 SWAP2 SWAP1 PUSH2 0x248E JUMP JUMPDEST PUSH1 0x40 MLOAD DUP1 SWAP2 SUB SWAP1 RETURN JUMPDEST PUSH2 0x2E9 PUSH1 0x4 DUP1 CALLDATASIZE SUB DUP2 ADD SWAP1 PUSH2 0x2E4 SWAP2 SWAP1 PUSH2 0x25FE JUMP JUMPDEST PUSH2 0x79A JUMP JUMPDEST STOP JUMPDEST PUSH2 0x305 PUSH1 0x4 DUP1 CALLDATASIZE SUB DUP2 ADD SWAP1 PUSH2 0x300 SWAP2 SWAP1 PUSH2 0x25D3 JUMP JUMPDEST PUSH2 0x7B0 JUMP JUMPDEST STOP JUMPDEST PUSH2 0x321 PUSH1 0x4 DUP1 CALLDATASIZE SUB DUP2 ADD SWAP1 PUSH2 0x31C SWAP2 SWAP1 PUSH2 0x263C JUMP JUMPDEST PUSH2 0x859 JUMP JUMPDEST STOP JUMPDEST PUSH2 0x33D PUSH1 0x4 DUP1 CALLDATASIZE SUB DUP2 ADD SWAP1 PUSH2 0x338 SWAP2 SWAP1 PUSH2 0x26BF JUMP JUMPDEST PUSH2 0x9CE JUMP JUMPDEST PUSH1 0x40 MLOAD PUSH2 0x34A SWAP2 SWAP1 PUSH2 0x26F9 JUMP JUMPDEST PUSH1 0x40 MLOAD DUP1 SWAP2 SUB SWAP1 RETURN JUMPDEST PUSH2 0x36D PUSH1 0x4 DUP1 CALLDATASIZE SUB DUP2 ADD SWAP1 PUSH2 0x368 SWAP2 SWAP1 PUSH2 0x2712 JUMP JUMPDEST PUSH2 0x9EB JUMP JUMPDEST STOP JUMPDEST PUSH2 0x389 PUSH1 0x4 DUP1 CALLDATASIZE SUB DUP2 ADD SWAP1 PUSH2 0x384 SWAP2 SWAP1 PUSH2 0x2712 JUMP JUMPDEST PUSH2 0xA0D JUMP JUMPDEST STOP JUMPDEST PUSH2 0x3A5 PUSH1 0x4 DUP1 CALLDATASIZE SUB DUP2 ADD SWAP1 PUSH2 0x3A0 SWAP2 SWAP1 PUSH2 0x25D3 JUMP JUMPDEST PUSH2 0xA88 JUMP JUMPDEST PUSH1 0x40 MLOAD PUSH2 0x3B2 SWAP2 SWAP1 PUSH2 0x248E JUMP JUMPDEST PUSH1 0x40 MLOAD DUP1 SWAP2 SUB SWAP1 RETURN JUMPDEST PUSH2 0x3D5 PUSH1 0x4 DUP1 CALLDATASIZE SUB DUP2 ADD SWAP1 PUSH2 0x3D0 SWAP2 SWAP1 PUSH2 0x263C JUMP JUMPDEST PUSH2 0xABA JUMP JUMPDEST STOP JUMPDEST PUSH2 0x3F1 PUSH1 0x4 DUP1 CALLDATASIZE SUB DUP2 ADD SWAP1 PUSH2 0x3EC SWAP2 SWAP1 PUSH2 0x2395 JUMP JUMPDEST PUSH2 0xAD9 JUMP JUMPDEST PUSH1 0x40 MLOAD PUSH2 0x3FE SWAP2 SWAP1 PUSH2 0x2590 JUMP JUMPDEST PUSH1 0x40 MLOAD DUP1 SWAP2 SUB SWAP1 RETURN JUMPDEST PUSH2 0x40F PUSH2 0xAEA JUMP JUMPDEST PUSH1 0x40 MLOAD PUSH2 0x41C SWAP2 SWAP1 PUSH2 0x26F9 JUMP JUMPDEST PUSH1 0x40 MLOAD DUP1 SWAP2 SUB SWAP1 RETURN JUMPDEST PUSH2 0x43F PUSH1 0x4 DUP1 CALLDATASIZE SUB DUP2 ADD SWAP1 PUSH2 0x43A SWAP2 SWAP1 PUSH2 0x25D3 JUMP JUMPDEST PUSH2 0xB0E JUMP JUMPDEST PUSH1 0x40 MLOAD PUSH2 0x44C SWAP2 SWAP1 PUSH2 0x275F JUMP JUMPDEST PUSH1 0x40 MLOAD DUP1 SWAP2 SUB SWAP1 RETURN JUMPDEST PUSH2 0x45D PUSH2 0xBC4 JUMP JUMPDEST PUSH1 0x40 MLOAD PUSH2 0x46A SWAP2 SWAP1 PUSH2 0x26F9 JUMP JUMPDEST PUSH1 0x40 MLOAD DUP1 SWAP2 SUB SWAP1 RETURN JUMPDEST PUSH2 0x48D PUSH1 0x4 DUP1 CALLDATASIZE SUB DUP2 ADD SWAP1 PUSH2 0x488 SWAP2 SWAP1 PUSH2 0x25D3 JUMP JUMPDEST PUSH2 0xBE8 JUMP JUMPDEST STOP JUMPDEST PUSH2 0x4A9 PUSH1 0x4 DUP1 CALLDATASIZE SUB DUP2 ADD SWAP1 PUSH2 0x4A4 SWAP2 SWAP1 PUSH2 0x2395 JUMP JUMPDEST PUSH2 0xC22 JUMP JUMPDEST PUSH1 0x40 MLOAD PUSH2 0x4B7 SWAP3 SWAP2 SWAP1 PUSH2 0x2796 JUMP JUMPDEST PUSH1 0x40 MLOAD DUP1 SWAP2 SUB SWAP1 RETURN JUMPDEST PUSH2 0x4DA PUSH1 0x4 DUP1 CALLDATASIZE SUB DUP2 ADD SWAP1 PUSH2 0x4D5 SWAP2 SWAP1 PUSH2 0x2712 JUMP JUMPDEST PUSH2 0xC66 JUMP JUMPDEST PUSH1 0x40 MLOAD PUSH2 0x4E7 SWAP2 SWAP1 PUSH2 0x248E JUMP JUMPDEST PUSH1 0x40 MLOAD DUP1 SWAP2 SUB SWAP1 RETURN JUMPDEST PUSH2 0x4F8 PUSH2 0xCCA JUMP JUMPDEST PUSH1 0x40 MLOAD PUSH2 0x505 SWAP2 SWAP1 PUSH2 0x27BD JUMP JUMPDEST PUSH1 0x40 MLOAD DUP1 SWAP2 SUB SWAP1 RETURN JUMPDEST PUSH2 0x516 PUSH2 0xCF1 JUMP JUMPDEST PUSH1 0x40 MLOAD PUSH2 0x523 SWAP2 SWAP1 PUSH2 0x2531 JUMP JUMPDEST PUSH1 0x40 MLOAD DUP1 SWAP2 SUB SWAP1 RETURN JUMPDEST PUSH2 0x534 PUSH2 0xD81 JUMP JUMPDEST PUSH1 0x40 MLOAD PUSH2 0x541 SWAP2 SWAP1 PUSH2 0x26F9 JUMP JUMPDEST PUSH1 0x40 MLOAD DUP1 SWAP2 SUB SWAP1 RETURN JUMPDEST PUSH2 0x564 PUSH1 0x4 DUP1 CALLDATASIZE SUB DUP2 ADD SWAP1 PUSH2 0x55F SWAP2 SWAP1 PUSH2 0x2800 JUMP JUMPDEST PUSH2 0xD87 JUMP JUMPDEST STOP JUMPDEST PUSH2 0x580 PUSH1 0x4 DUP1 CALLDATASIZE SUB DUP2 ADD SWAP1 PUSH2 0x57B SWAP2 SWAP1 PUSH2 0x296A JUMP JUMPDEST PUSH2 0xD9D JUMP JUMPDEST STOP JUMPDEST PUSH2 0x59C PUSH1 0x4 DUP1 CALLDATASIZE SUB DUP2 ADD SWAP1 PUSH2 0x597 SWAP2 SWAP1 PUSH2 0x2395 JUMP JUMPDEST PUSH2 0xF14 JUMP JUMPDEST PUSH1 0x40 MLOAD PUSH2 0x5A9 SWAP2 SWAP1 PUSH2 0x27BD JUMP JUMPDEST PUSH1 0x40 MLOAD DUP1 SWAP2 SUB SWAP1 RETURN JUMPDEST PUSH2 0x5CC PUSH1 0x4 DUP1 CALLDATASIZE SUB DUP2 ADD SWAP1 PUSH2 0x5C7 SWAP2 SWAP1 PUSH2 0x2395 JUMP JUMPDEST PUSH2 0xF3F JUMP JUMPDEST PUSH1 0x40 MLOAD PUSH2 0x5D9 SWAP2 SWAP1 PUSH2 0x2531 JUMP JUMPDEST PUSH1 0x40 MLOAD DUP1 SWAP2 SUB SWAP1 RETURN JUMPDEST PUSH2 0x5FC PUSH1 0x4 DUP1 CALLDATASIZE SUB DUP2 ADD SWAP1 PUSH2 0x5F7 SWAP2 SWAP1 PUSH2 0x2712 JUMP JUMPDEST PUSH2 0xFA5 JUMP JUMPDEST STOP JUMPDEST PUSH2 0x618 PUSH1 0x4 DUP1 CALLDATASIZE SUB DUP2 ADD SWAP1 PUSH2 0x613 SWAP2 SWAP1 PUSH2 0x25D3 JUMP JUMPDEST PUSH2 0xFC7 JUMP JUMPDEST STOP JUMPDEST PUSH2 0x634 PUSH1 0x4 DUP1 CALLDATASIZE SUB DUP2 ADD SWAP1 PUSH2 0x62F SWAP2 SWAP1 PUSH2 0x29EA JUMP JUMPDEST PUSH2 0x1001 JUMP JUMPDEST PUSH1 0x40 MLOAD PUSH2 0x641 SWAP2 SWAP1 PUSH2 0x248E JUMP JUMPDEST PUSH1 0x40 MLOAD DUP1 SWAP2 SUB SWAP1 RETURN JUMPDEST PUSH2 0x652 PUSH2 0x108F JUMP JUMPDEST PUSH1 0x40 MLOAD PUSH2 0x65F SWAP2 SWAP1 PUSH2 0x23DB JUMP JUMPDEST PUSH1 0x40 MLOAD DUP1 SWAP2 SUB SWAP1 RETURN JUMPDEST PUSH2 0x682 PUSH1 0x4 DUP1 CALLDATASIZE SUB DUP2 ADD SWAP1 PUSH2 0x67D SWAP2 SWAP1 PUSH2 0x25D3 JUMP JUMPDEST PUSH2 0x10B6 JUMP JUMPDEST STOP JUMPDEST PUSH0 PUSH1 0x7 PUSH0 DUP4 DUP2 MSTORE PUSH1 0x20 ADD SWAP1 DUP2 MSTORE PUSH1 0x20 ADD PUSH0 KECCAK256 PUSH0 ADD PUSH1 0x4 SWAP1 SLOAD SWAP1 PUSH2 0x100 EXP SWAP1 DIV PUSH1 0xFF AND SWAP1 POP SWAP2 SWAP1 POP JUMP JUMPDEST PUSH0 PUSH2 0x6B7 DUP3 PUSH2 0x10F0 JUMP JUMPDEST SWAP1 POP SWAP2 SWAP1 POP JUMP JUMPDEST PUSH1 0x60 PUSH0 DUP1 SLOAD PUSH2 0x6CC SWAP1 PUSH2 0x2A55 JUMP JUMPDEST DUP1 PUSH1 0x1F ADD PUSH1 0x20 DUP1 SWAP2 DIV MUL PUSH1 0x20 ADD PUSH1 0x40 MLOAD SWAP1 DUP2 ADD PUSH1 0x40 MSTORE DUP1 SWAP3 SWAP2 SWAP1 DUP2 DUP2 MSTORE PUSH1 0x20 ADD DUP3 DUP1 SLOAD PUSH2 0x6F8 SWAP1 PUSH2 0x2A55 JUMP JUMPDEST DUP1 ISZERO PUSH2 0x743 JUMPI DUP1 PUSH1 0x1F LT PUSH2 0x71A JUMPI PUSH2 0x100 DUP1 DUP4 SLOAD DIV MUL DUP4 MSTORE SWAP2 PUSH1 0x20 ADD SWAP2 PUSH2 0x743 JUMP JUMPDEST DUP3 ADD SWAP2 SWAP1 PUSH0 MSTORE PUSH1 0x20 PUSH0 KECCAK256 SWAP1 JUMPDEST DUP2 SLOAD DUP2 MSTORE SWAP1 PUSH1 0x1 ADD SWAP1 PUSH1 0x20 ADD DUP1 DUP4 GT PUSH2 0x726 JUMPI DUP3 SWAP1 SUB PUSH1 0x1F AND DUP3 ADD SWAP2 JUMPDEST POP POP POP POP POP SWAP1 POP SWAP1 JUMP JUMPDEST PUSH0 PUSH2 0x757 DUP3 PUSH2 0x1169 JUMP JUMPDEST POP PUSH2 0x761 DUP3 PUSH2 0x11EF JUMP JUMPDEST SWAP1 POP SWAP2 SWAP1 POP JUMP JUMPDEST PUSH0 PUSH2 0x793 PUSH32 0x797343F8D6A29AAFEB3AAF0910A8973E0081C60C2F6C1F775CD9F76EA348FC1E DUP4 PUSH2 0xC66 JUMP JUMPDEST SWAP1 POP SWAP2 SWAP1 POP JUMP JUMPDEST PUSH2 0x7AC DUP3 DUP3 PUSH2 0x7A7 PUSH2 0x1228 JUMP JUMPDEST PUSH2 0x122F JUMP JUMPDEST POP POP JUMP JUMPDEST PUSH0 DUP1 SHL PUSH2 0x7BC DUP2 PUSH2 0x1241 JUMP JUMPDEST PUSH0 PUSH20 0xFFFFFFFFFFFFFFFFFFFFFFFFFFFFFFFFFFFFFFFF AND DUP3 PUSH20 0xFFFFFFFFFFFFFFFFFFFFFFFFFFFFFFFFFFFFFFFF AND SUB PUSH2 0x82A JUMPI PUSH1 0x40 MLOAD PUSH32 0x8C379A000000000000000000000000000000000000000000000000000000000 DUP2 MSTORE PUSH1 0x4 ADD PUSH2 0x821 SWAP1 PUSH2 0x2ACF JUMP JUMPDEST PUSH1 0x40 MLOAD DUP1 SWAP2 SUB SWAP1 REVERT JUMPDEST PUSH2 0x854 PUSH32 0x797343F8D6A29AAFEB3AAF0910A8973E0081C60C2F6C1F775CD9F76EA348FC1E DUP4 PUSH2 0x1255 JUMP JUMPDEST POP POP POP JUMP JUMPDEST PUSH0 CALLER PUSH20 0xFFFFFFFFFFFFFFFFFFFFFFFFFFFFFFFFFFFFFFFF AND EXTCODESIZE GT DUP1 ISZERO PUSH2 0x8A6 JUMPI POP PUSH2 0x8A4 PUSH32 0x797343F8D6A29AAFEB3AAF0910A8973E0081C60C2F6C1F775CD9F76EA348FC1E CALLER PUSH2 0xC66 JUMP JUMPDEST ISZERO JUMPDEST ISZERO PUSH2 0x8E6 JUMPI PUSH1 0x40 MLOAD PUSH32 0x8C379A000000000000000000000000000000000000000000000000000000000 DUP2 MSTORE PUSH1 0x4 ADD PUSH2 0x8DD SWAP1 PUSH2 0x2B5D JUMP JUMPDEST PUSH1 0x40 MLOAD DUP1 SWAP2 SUB SWAP1 REVERT JUMPDEST PUSH2 0x8F1 DUP4 DUP4 DUP4 PUSH2 0x133F JUMP JUMPDEST PUSH2 0x8FC DUP4 DUP4 DUP4 PUSH2 0x14DC JUMP JUMPDEST PUSH2 0x926 PUSH32 0xDC72ED553F2544C34465AF23B847953EFEB813428162D767F9BA5F4013BE6760 DUP4 PUSH2 0xC66 JUMP JUMPDEST ISZERO DUP1 ISZERO PUSH2 0x95A JUMPI POP PUSH2 0x958 PUSH32 0xDC72ED553F2544C34465AF23B847953EFEB813428162D767F9BA5F4013BE6760 DUP5 PUSH2 0xC66 JUMP JUMPDEST ISZERO JUMPDEST ISZERO PUSH2 0x9C9 JUMPI PUSH0 PUSH1 0x7 PUSH0 DUP4 DUP2 MSTORE PUSH1 0x20 ADD SWAP1 DUP2 MSTORE PUSH1 0x20 ADD PUSH0 KECCAK256 SWAP1 POP NUMBER DUP2 PUSH0 ADD PUSH0 PUSH2 0x100 EXP DUP2 SLOAD DUP2 PUSH4 0xFFFFFFFF MUL NOT AND SWAP1 DUP4 PUSH4 0xFFFFFFFF AND MUL OR SWAP1 SSTORE POP DUP1 PUSH0 ADD PUSH1 0x4 DUP2 DUP2 SWAP1 SLOAD SWAP1 PUSH2 0x100 EXP SWAP1 DIV PUSH1 0xFF AND DUP1 SWAP3 SWAP2 SWAP1 PUSH1 0x1 ADD SWAP2 SWAP1 PUSH2 0x100 EXP DUP2 SLOAD DUP2 PUSH1 0xFF MUL NOT AND SWAP1 DUP4 PUSH1 0xFF AND MUL OR SWAP1 SSTORE POP POP POP JUMPDEST POP POP POP JUMP JUMPDEST PUSH0 PUSH1 0x6 PUSH0 DUP4 DUP2 MSTORE PUSH1 0x20 ADD SWAP1 DUP2 MSTORE PUSH1 0x20 ADD PUSH0 KECCAK256 PUSH1 0x1 ADD SLOAD SWAP1 POP SWAP2 SWAP1 POP JUMP JUMPDEST PUSH2 0x9F4 DUP3 PUSH2 0x9CE JUMP JUMPDEST PUSH2 0x9FD DUP2 PUSH2 0x1241 JUMP JUMPDEST PUSH2 0xA07 DUP4 DUP4 PUSH2 0x1255 JUMP JUMPDEST POP POP POP POP JUMP JUMPDEST PUSH2 0xA15 PUSH2 0x1228 JUMP JUMPDEST PUSH20 0xFFFFFFFFFFFFFFFFFFFFFFFFFFFFFFFFFFFFFFFF AND DUP2 PUSH20 0xFFFFFFFFFFFFFFFFFFFFFFFFFFFFFFFFFFFFFFFF AND EQ PUSH2 0xA79 JUMPI PUSH1 0x40 MLOAD PUSH32 0x6697B23200000000000000000000000000000000000000000000000000000000 DUP2 MSTORE PUSH1 0x4 ADD PUSH1 0x40 MLOAD DUP1 SWAP2 SUB SWAP1 REVERT JUMPDEST PUSH2 0xA83 DUP3 DUP3 PUSH2 0x15DB JUMP JUMPDEST POP POP POP JUMP JUMPDEST PUSH0 PUSH2 0xAB3 PUSH32 0xDC72ED553F2544C34465AF23B847953EFEB813428162D767F9BA5F4013BE6760 DUP4 PUSH2 0xC66 JUMP JUMPDEST SWAP1 POP SWAP2 SWAP1 POP JUMP JUMPDEST PUSH2 0xAD4 DUP4 DUP4 DUP4 PUSH1 0x40 MLOAD DUP1 PUSH1 0x20 ADD PUSH1 0x40 MSTORE DUP1 PUSH0 DUP2 MSTORE POP PUSH2 0xD9D JUMP JUMPDEST POP POP POP JUMP JUMPDEST PUSH0 PUSH2 0xAE3 DUP3 PUSH2 0x1169 JUMP JUMPDEST SWAP1 POP SWAP2 SWAP1 POP JUMP JUMPDEST PUSH32 0x797343F8D6A29AAFEB3AAF0910A8973E0081C60C2F6C1F775CD9F76EA348FC1E DUP2 JUMP JUMPDEST PUSH0 DUP1 PUSH20 0xFFFFFFFFFFFFFFFFFFFFFFFFFFFFFFFFFFFFFFFF AND DUP3 PUSH20 0xFFFFFFFFFFFFFFFFFFFFFFFFFFFFFFFFFFFFFFFF AND SUB PUSH2 0xB7F JUMPI PUSH0 PUSH1 0x40 MLOAD PUSH32 0x89C62B6400000000000000000000000000000000000000000000000000000000 DUP2 MSTORE PUSH1 0x4 ADD PUSH2 0xB76 SWAP2 SWAP1 PUSH2 0x2590 JUMP JUMPDEST PUSH1 0x40 MLOAD DUP1 SWAP2 SUB SWAP1 REVERT JUMPDEST PUSH1 0x3 PUSH0 DUP4 PUSH20 0xFFFFFFFFFFFFFFFFFFFFFFFFFFFFFFFFFFFFFFFF AND PUSH20 0xFFFFFFFFFFFFFFFFFFFFFFFFFFFFFFFFFFFFFFFF AND DUP2 MSTORE PUSH1 0x20 ADD SWAP1 DUP2 MSTORE PUSH1 0x20 ADD PUSH0 KECCAK256 SLOAD SWAP1 POP SWAP2 SWAP1 POP JUMP JUMPDEST PUSH32 0xDC72ED553F2544C34465AF23B847953EFEB813428162D767F9BA5F4013BE6760 DUP2 JUMP JUMPDEST PUSH0 DUP1 SHL PUSH2 0xBF4 DUP2 PUSH2 0x1241 JUMP JUMPDEST PUSH2 0xC1E PUSH32 0xDC72ED553F2544C34465AF23B847953EFEB813428162D767F9BA5F4013BE6760 DUP4 PUSH2 0xFA5 JUMP JUMPDEST POP POP JUMP JUMPDEST PUSH0 DUP1 PUSH0 PUSH1 0x7 PUSH0 DUP6 DUP2 MSTORE PUSH1 0x20 ADD SWAP1 DUP2 MSTORE PUSH1 0x20 ADD PUSH0 KECCAK256 SWAP1 POP DUP1 PUSH0 ADD PUSH0 SWAP1 SLOAD SWAP1 PUSH2 0x100 EXP SWAP1 DIV PUSH4 0xFFFFFFFF AND DUP2 PUSH0 ADD PUSH1 0x4 SWAP1 SLOAD SWAP1 PUSH2 0x100 EXP SWAP1 DIV PUSH1 0xFF AND SWAP3 POP SWAP3 POP POP SWAP2 POP SWAP2 JUMP JUMPDEST PUSH0 PUSH1 0x6 PUSH0 DUP5 DUP2 MSTORE PUSH1 0x20 ADD SWAP1 DUP2 MSTORE PUSH1 0x20 ADD PUSH0 KECCAK256 PUSH0 ADD PUSH0 DUP4 PUSH20 0xFFFFFFFFFFFFFFFFFFFFFFFFFFFFFFFFFFFFFFFF AND PUSH20 0xFFFFFFFFFFFFFFFFFFFFFFFFFFFFFFFFFFFFFFFF AND DUP2 MSTORE PUSH1 0x20 ADD SWAP1 DUP2 MSTORE PUSH1 0x20 ADD PUSH0 KECCAK256 PUSH0 SWAP1 SLOAD SWAP1 PUSH2 0x100 EXP SWAP1 DIV PUSH1 0xFF AND SWAP1 POP SWAP3 SWAP2 POP POP JUMP JUMPDEST PUSH0 PUSH32 0x0 SWAP1 POP SWAP1 JUMP JUMPDEST PUSH1 0x60 PUSH1 0x1 DUP1 SLOAD PUSH2 0xD00 SWAP1 PUSH2 0x2A55 JUMP JUMPDEST DUP1 PUSH1 0x1F ADD PUSH1 0x20 DUP1 SWAP2 DIV MUL PUSH1 0x20 ADD PUSH1 0x40 MLOAD SWAP1 DUP2 ADD PUSH1 0x40 MSTORE DUP1 SWAP3 SWAP2 SWAP1 DUP2 DUP2 MSTORE PUSH1 0x20 ADD DUP3 DUP1 SLOAD PUSH2 0xD2C SWAP1 PUSH2 0x2A55 JUMP JUMPDEST DUP1 ISZERO PUSH2 0xD77 JUMPI DUP1 PUSH1 0x1F LT PUSH2 0xD4E JUMPI PUSH2 0x100 DUP1 DUP4 SLOAD DIV MUL DUP4 MSTORE SWAP2 PUSH1 0x20 ADD SWAP2 PUSH2 0xD77 JUMP JUMPDEST DUP3 ADD SWAP2 SWAP1 PUSH0 MSTORE PUSH1 0x20 PUSH0 KECCAK256 SWAP1 JUMPDEST DUP2 SLOAD DUP2 MSTORE SWAP1 PUSH1 0x1 ADD SWAP1 PUSH1 0x20 ADD DUP1 DUP4 GT PUSH2 0xD5A JUMPI DUP3 SWAP1 SUB PUSH1 0x1F AND DUP3 ADD SWAP2 JUMPDEST POP POP POP POP POP SWAP1 POP SWAP1 JUMP JUMPDEST PUSH0 DUP1 SHL DUP2 JUMP JUMPDEST PUSH2 0xD99 PUSH2 0xD92 PUSH2 0x1228 JUMP JUMPDEST DUP4 DUP4 PUSH2 0x16C5 JUMP JUMPDEST POP POP JUMP JUMPDEST PUSH0 CALLER PUSH20 0xFFFFFFFFFFFFFFFFFFFFFFFFFFFFFFFFFFFFFFFF AND EXTCODESIZE GT DUP1 ISZERO PUSH2 0xDEA JUMPI POP PUSH2 0xDE8 PUSH32 0x797343F8D6A29AAFEB3AAF0910A8973E0081C60C2F6C1F775CD9F76EA348FC1E CALLER PUSH2 0xC66 JUMP JUMPDEST ISZERO JUMPDEST ISZERO PUSH2 0xE2A JUMPI PUSH1 0x40 MLOAD PUSH32 0x8C379A000000000000000000000000000000000000000000000000000000000 DUP2 MSTORE PUSH1 0x4 ADD PUSH2 0xE21 SWAP1 PUSH2 0x2B5D JUMP JUMPDEST PUSH1 0x40 MLOAD DUP1 SWAP2 SUB SWAP1 REVERT JUMPDEST PUSH2 0xE35 DUP5 DUP5 DUP5 PUSH2 0x133F JUMP JUMPDEST PUSH2 0xE41 DUP5 DUP5 DUP5 DUP5 PUSH2 0x182E JUMP JUMPDEST PUSH2 0xE6B PUSH32 0xDC72ED553F2544C34465AF23B847953EFEB813428162D767F9BA5F4013BE6760 DUP5 PUSH2 0xC66 JUMP JUMPDEST ISZERO DUP1 ISZERO PUSH2 0xE9F JUMPI POP PUSH2 0xE9D PUSH32 0xDC72ED553F2544C34465AF23B847953EFEB813428162D767F9BA5F4013BE6760 DUP6 PUSH2 0xC66 JUMP JUMPDEST ISZERO JUMPDEST ISZERO PUSH2 0xF0E JUMPI PUSH0 PUSH1 0x7 PUSH0 DUP5 DUP2 MSTORE PUSH1 0x20 ADD SWAP1 DUP2 MSTORE PUSH1 0x20 ADD PUSH0 KECCAK256 SWAP1 POP NUMBER DUP2 PUSH0 ADD PUSH0 PUSH2 0x100 EXP DUP2 SLOAD DUP2 PUSH4 0xFFFFFFFF MUL NOT AND SWAP1 DUP4 PUSH4 0xFFFFFFFF AND MUL OR SWAP1 SSTORE POP DUP1 PUSH0 ADD PUSH1 0x4 DUP2 DUP2 SWAP1 SLOAD SWAP1 PUSH2 0x100 EXP SWAP1 DIV PUSH1 0xFF AND DUP1 SWAP3 SWAP2 SWAP1 PUSH1 0x1 ADD SWAP2 SWAP1 PUSH2 0x100 EXP DUP2 SLOAD DUP2 PUSH1 0xFF MUL NOT AND SWAP1 DUP4 PUSH1 0xFF AND MUL OR SWAP1 SSTORE POP POP POP JUMPDEST POP POP POP POP JUMP JUMPDEST PUSH0 PUSH1 0x7 PUSH0 DUP4 DUP2 MSTORE PUSH1 0x20 ADD SWAP1 DUP2 MSTORE PUSH1 0x20 ADD PUSH0 KECCAK256 PUSH0 ADD PUSH0 SWAP1 SLOAD SWAP1 PUSH2 0x100 EXP SWAP1 DIV PUSH4 0xFFFFFFFF AND SWAP1 POP SWAP2 SWAP1 POP JUMP JUMPDEST PUSH1 0x60 PUSH2 0xF4A DUP3 PUSH2 0x1169 JUMP JUMPDEST POP PUSH0 PUSH2 0xF54 PUSH2 0x1853 JUMP JUMPDEST SWAP1 POP PUSH0 DUP2 MLOAD GT PUSH2 0xF72 JUMPI PUSH1 0x40 MLOAD DUP1 PUSH1 0x20 ADD PUSH1 0x40 MSTORE DUP1 PUSH0 DUP2 MSTORE POP PUSH2 0xF9D JUMP JUMPDEST DUP1 PUSH2 0xF7C DUP5 PUSH2 0x1869 JUMP JUMPDEST PUSH1 0x40 MLOAD PUSH1 0x20 ADD PUSH2 0xF8D SWAP3 SWAP2 SWAP1 PUSH2 0x2BB5 JUMP JUMPDEST PUSH1 0x40 MLOAD PUSH1 0x20 DUP2 DUP4 SUB SUB DUP2 MSTORE SWAP1 PUSH1 0x40 MSTORE JUMPDEST SWAP2 POP POP SWAP2 SWAP1 POP JUMP JUMPDEST PUSH2 0xFAE DUP3 PUSH2 0x9CE JUMP JUMPDEST PUSH2 0xFB7 DUP2 PUSH2 0x1241 JUMP JUMPDEST PUSH2 0xFC1 DUP4 DUP4 PUSH2 0x15DB JUMP JUMPDEST POP POP POP POP JUMP JUMPDEST PUSH0 DUP1 SHL PUSH2 0xFD3 DUP2 PUSH2 0x1241 JUMP JUMPDEST PUSH2 0xFFD PUSH32 0xDC72ED553F2544C34465AF23B847953EFEB813428162D767F9BA5F4013BE6760 DUP4 PUSH2 0x9EB JUMP JUMPDEST POP POP JUMP JUMPDEST PUSH0 PUSH1 0x5 PUSH0 DUP5 PUSH20 0xFFFFFFFFFFFFFFFFFFFFFFFFFFFFFFFFFFFFFFFF AND PUSH20 0xFFFFFFFFFFFFFFFFFFFFFFFFFFFFFFFFFFFFFFFF AND DUP2 MSTORE PUSH1 0x20 ADD SWAP1 DUP2 MSTORE PUSH1 0x20 ADD PUSH0 KECCAK256 PUSH0 DUP4 PUSH20 0xFFFFFFFFFFFFFFFFFFFFFFFFFFFFFFFFFFFFFFFF AND PUSH20 0xFFFFFFFFFFFFFFFFFFFFFFFFFFFFFFFFFFFFFFFF AND DUP2 MSTORE PUSH1 0x20 ADD SWAP1 DUP2 MSTORE PUSH1 0x20 ADD PUSH0 KECCAK256 PUSH0 SWAP1 SLOAD SWAP1 PUSH2 0x100 EXP SWAP1 DIV PUSH1 0xFF AND SWAP1 POP SWAP3 SWAP2 POP POP JUMP JUMPDEST PUSH0 PUSH32 0x0 SWAP1 POP SWAP1 JUMP JUMPDEST PUSH0 DUP1 SHL PUSH2 0x10C2 DUP2 PUSH2 0x1241 JUMP JUMPDEST PUSH2 0x10EC PUSH32 0x797343F8D6A29AAFEB3AAF0910A8973E0081C60C2F6C1F775CD9F76EA348FC1E DUP4 PUSH2 0xFA5 JUMP JUMPDEST POP POP JUMP JUMPDEST PUSH0 PUSH32 0x7965DB0B00000000000000000000000000000000000000000000000000000000 PUSH28 0xFFFFFFFFFFFFFFFFFFFFFFFFFFFFFFFFFFFFFFFFFFFFFFFFFFFFFFFF NOT AND DUP3 PUSH28 0xFFFFFFFFFFFFFFFFFFFFFFFFFFFFFFFFFFFFFFFFFFFFFFFFFFFFFFFF NOT AND EQ DUP1 PUSH2 0x1162 JUMPI POP PUSH2 0x1161 DUP3 PUSH2 0x1933 JUMP JUMPDEST JUMPDEST SWAP1 POP SWAP2 SWAP1 POP JUMP JUMPDEST PUSH0 DUP1 PUSH2 0x1174 DUP4 PUSH2 0x1A14 JUMP JUMPDEST SWAP1 POP PUSH0 PUSH20 0xFFFFFFFFFFFFFFFFFFFFFFFFFFFFFFFFFFFFFFFF AND DUP2 PUSH20 0xFFFFFFFFFFFFFFFFFFFFFFFFFFFFFFFFFFFFFFFF AND SUB PUSH2 0x11E6 JUMPI DUP3 PUSH1 0x40 MLOAD PUSH32 0x7E27328900000000000000000000000000000000000000000000000000000000 DUP2 MSTORE PUSH1 0x4 ADD PUSH2 0x11DD SWAP2 SWAP1 PUSH2 0x275F JUMP JUMPDEST PUSH1 0x40 MLOAD DUP1 SWAP2 SUB SWAP1 REVERT JUMPDEST DUP1 SWAP2 POP POP SWAP2 SWAP1 POP JUMP JUMPDEST PUSH0 PUSH1 0x4 PUSH0 DUP4 DUP2 MSTORE PUSH1 0x20 ADD SWAP1 DUP2 MSTORE PUSH1 0x20 ADD PUSH0 KECCAK256 PUSH0 SWAP1 SLOAD SWAP1 PUSH2 0x100 EXP SWAP1 DIV PUSH20 0xFFFFFFFFFFFFFFFFFFFFFFFFFFFFFFFFFFFFFFFF AND SWAP1 POP SWAP2 SWAP1 POP JUMP JUMPDEST PUSH0 CALLER SWAP1 POP SWAP1 JUMP JUMPDEST PUSH2 0x123C DUP4 DUP4 DUP4 PUSH1 0x1 PUSH2 0x1A4D JUMP JUMPDEST POP POP POP JUMP JUMPDEST PUSH2 0x1252 DUP2 PUSH2 0x124D PUSH2 0x1228 JUMP JUMPDEST PUSH2 0x1C0C JUMP JUMPDEST POP JUMP JUMPDEST PUSH0 PUSH2 0x1260 DUP4 DUP4 PUSH2 0xC66 JUMP JUMPDEST PUSH2 0x1335 JUMPI PUSH1 0x1 PUSH1 0x6 PUSH0 DUP6 DUP2 MSTORE PUSH1 0x20 ADD SWAP1 DUP2 MSTORE PUSH1 0x20 ADD PUSH0 KECCAK256 PUSH0 ADD PUSH0 DUP5 PUSH20 0xFFFFFFFFFFFFFFFFFFFFFFFFFFFFFFFFFFFFFFFF AND PUSH20 0xFFFFFFFFFFFFFFFFFFFFFFFFFFFFFFFFFFFFFFFF AND DUP2 MSTORE PUSH1 0x20 ADD SWAP1 DUP2 MSTORE PUSH1 0x20 ADD PUSH0 KECCAK256 PUSH0 PUSH2 0x100 EXP DUP2 SLOAD DUP2 PUSH1 0xFF MUL NOT AND SWAP1 DUP4 ISZERO ISZERO MUL OR SWAP1 SSTORE POP PUSH2 0x12D2 PUSH2 0x1228 JUMP JUMPDEST PUSH20 0xFFFFFFFFFFFFFFFFFFFFFFFFFFFFFFFFFFFFFFFF AND DUP3 PUSH20 0xFFFFFFFFFFFFFFFFFFFFFFFFFFFFFFFFFFFFFFFF AND DUP5 PUSH32 0x2F8788117E7EFF1D82E926EC794901D17C78024A50270940304540A733656F0D PUSH1 0x40 MLOAD PUSH1 0x40 MLOAD DUP1 SWAP2 SUB SWAP1 LOG4 PUSH1 0x1 SWAP1 POP PUSH2 0x1339 JUMP JUMPDEST PUSH0 SWAP1 POP JUMPDEST SWAP3 SWAP2 POP POP JUMP JUMPDEST PUSH2 0x1369 PUSH32 0xDC72ED553F2544C34465AF23B847953EFEB813428162D767F9BA5F4013BE6760 DUP5 PUSH2 0xC66 JUMP JUMPDEST ISZERO DUP1 ISZERO PUSH2 0x139D JUMPI POP PUSH2 0x139B PUSH32 0xDC72ED553F2544C34465AF23B847953EFEB813428162D767F9BA5F4013BE6760 DUP4 PUSH2 0xC66 JUMP JUMPDEST ISZERO JUMPDEST ISZERO PUSH2 0x14D7 JUMPI PUSH0 PUSH1 0x7 PUSH0 DUP4 DUP2 MSTORE PUSH1 0x20 ADD SWAP1 DUP2 MSTORE PUSH1 0x20 ADD PUSH0 KECCAK256 SWAP1 POP PUSH32 0x0 PUSH1 0xFF AND DUP2 PUSH0 ADD PUSH1 0x4 SWAP1 SLOAD SWAP1 PUSH2 0x100 EXP SWAP1 DIV PUSH1 0xFF AND PUSH1 0xFF AND LT PUSH2 0x142E JUMPI PUSH1 0x40 MLOAD PUSH32 0x8C379A000000000000000000000000000000000000000000000000000000000 DUP2 MSTORE PUSH1 0x4 ADD PUSH2 0x1425 SWAP1 PUSH2 0x2C48 JUMP JUMPDEST PUSH1 0x40 MLOAD DUP1 SWAP2 SUB SWAP1 REVERT JUMPDEST PUSH0 DUP2 PUSH0 ADD PUSH0 SWAP1 SLOAD SWAP1 PUSH2 0x100 EXP SWAP1 DIV PUSH4 0xFFFFFFFF AND PUSH4 0xFFFFFFFF AND EQ ISZERO DUP1 ISZERO PUSH2 0x1495 JUMPI POP PUSH32 0x0 PUSH4 0xFFFFFFFF AND DUP2 PUSH0 ADD PUSH0 SWAP1 SLOAD SWAP1 PUSH2 0x100 EXP SWAP1 DIV PUSH4 0xFFFFFFFF AND NUMBER SUB PUSH4 0xFFFFFFFF AND LT JUMPDEST ISZERO PUSH2 0x14D5 JUMPI PUSH1 0x40 MLOAD PUSH32 0x8C379A000000000000000000000000000000000000000000000000000000000 DUP2 MSTORE PUSH1 0x4 ADD PUSH2 0x14CC SWAP1 PUSH2 0x2CB0 JUMP JUMPDEST PUSH1 0x40 MLOAD DUP1 SWAP2 SUB SWAP1 REVERT JUMPDEST POP JUMPDEST POP POP POP JUMP JUMPDEST PUSH0 PUSH20 0xFFFFFFFFFFFFFFFFFFFFFFFFFFFFFFFFFFFFFFFF AND DUP3 PUSH20 0xFFFFFFFFFFFFFFFFFFFFFFFFFFFFFFFFFFFFFFFF AND SUB PUSH2 0x154C JUMPI PUSH0 PUSH1 0x40 MLOAD PUSH32 0x64A0AE9200000000000000000000000000000000000000000000000000000000 DUP2 MSTORE PUSH1 0x4 ADD PUSH2 0x1543 SWAP2 SWAP1 PUSH2 0x2590 JUMP JUMPDEST PUSH1 0x40 MLOAD DUP1 SWAP2 SUB SWAP1 REVERT JUMPDEST PUSH0 PUSH2 0x155F DUP4 DUP4 PUSH2 0x155A PUSH2 0x1228 JUMP JUMPDEST PUSH2 0x1C5D JUMP JUMPDEST SWAP1 POP DUP4 PUSH20 0xFFFFFFFFFFFFFFFFFFFFFFFFFFFFFFFFFFFFFFFF AND DUP2 PUSH20 0xFFFFFFFFFFFFFFFFFFFFFFFFFFFFFFFFFFFFFFFF AND EQ PUSH2 0x15D5 JUMPI DUP4 DUP3 DUP3 PUSH1 0x40 MLOAD PUSH32 0x64283D7B00000000000000000000000000000000000000000000000000000000 DUP2 MSTORE PUSH1 0x4 ADD PUSH2 0x15CC SWAP4 SWAP3 SWAP2 SWAP1 PUSH2 0x2CCE JUMP JUMPDEST PUSH1 0x40 MLOAD DUP1 SWAP2 SUB SWAP1 REVERT JUMPDEST POP POP POP POP JUMP JUMPDEST PUSH0 PUSH2 0x15E6 DUP4 DUP4 PUSH2 0xC66 JUMP JUMPDEST ISZERO PUSH2 0x16BB JUMPI PUSH0 PUSH1 0x6 PUSH0 DUP6 DUP2 MSTORE PUSH1 0x20 ADD SWAP1 DUP2 MSTORE PUSH1 0x20 ADD PUSH0 KECCAK256 PUSH0 ADD PUSH0 DUP5 PUSH20 0xFFFFFFFFFFFFFFFFFFFFFFFFFFFFFFFFFFFFFFFF AND PUSH20 0xFFFFFFFFFFFFFFFFFFFFFFFFFFFFFFFFFFFFFFFF AND DUP2 MSTORE PUSH1 0x20 ADD SWAP1 DUP2 MSTORE PUSH1 0x20 ADD PUSH0 KECCAK256 PUSH0 PUSH2 0x100 EXP DUP2 SLOAD DUP2 PUSH1 0xFF MUL NOT AND SWAP1 DUP4 ISZERO ISZERO MUL OR SWAP1 SSTORE POP PUSH2 0x1658 PUSH2 0x1228 JUMP JUMPDEST PUSH20 0xFFFFFFFFFFFFFFFFFFFFFFFFFFFFFFFFFFFFFFFF AND DUP3 PUSH20 0xFFFFFFFFFFFFFFFFFFFFFFFFFFFFFFFFFFFFFFFF AND DUP5 PUSH32 0xF6391F5C32D9C69D2A47EA670B442974B53935D1EDC7FD64EB21E047A839171B PUSH1 0x40 MLOAD PUSH1 0x40 MLOAD DUP1 SWAP2 SUB SWAP1 LOG4 PUSH1 0x1 SWAP1 POP PUSH2 0x16BF JUMP JUMPDEST PUSH0 SWAP1 POP JUMPDEST SWAP3 SWAP2 POP POP JUMP JUMPDEST PUSH0 PUSH20 0xFFFFFFFFFFFFFFFFFFFFFFFFFFFFFFFFFFFFFFFF AND DUP3 PUSH20 0xFFFFFFFFFFFFFFFFFFFFFFFFFFFFFFFFFFFFFFFF AND SUB PUSH2 0x1735 JUMPI DUP2 PUSH1 0x40 MLOAD PUSH32 0x5B08BA1800000000000000000000000000000000000000000000000000000000 DUP2 MSTORE PUSH1 0x4 ADD PUSH2 0x172C SWAP2 SWAP1 PUSH2 0x2590 JUMP JUMPDEST PUSH1 0x40 MLOAD DUP1 SWAP2 SUB SWAP1 REVERT JUMPDEST DUP1 PUSH1 0x5 PUSH0 DUP6 PUSH20 0xFFFFFFFFFFFFFFFFFFFFFFFFFFFFFFFFFFFFFFFF AND PUSH20 0xFFFFFFFFFFFFFFFFFFFFFFFFFFFFFFFFFFFFFFFF AND DUP2 MSTORE PUSH1 0x20 ADD SWAP1 DUP2 MSTORE PUSH1 0x20 ADD PUSH0 KECCAK256 PUSH0 DUP5 PUSH20 0xFFFFFFFFFFFFFFFFFFFFFFFFFFFFFFFFFFFFFFFF AND PUSH20 0xFFFFFFFFFFFFFFFFFFFFFFFFFFFFFFFFFFFFFFFF AND DUP2 MSTORE PUSH1 0x20 ADD SWAP1 DUP2 MSTORE PUSH1 0x20 ADD PUSH0 KECCAK256 PUSH0 PUSH2 0x100 EXP DUP2 SLOAD DUP2 PUSH1 0xFF MUL NOT AND SWAP1 DUP4 ISZERO ISZERO MUL OR SWAP1 SSTORE POP DUP2 PUSH20 0xFFFFFFFFFFFFFFFFFFFFFFFFFFFFFFFFFFFFFFFF AND DUP4 PUSH20 0xFFFFFFFFFFFFFFFFFFFFFFFFFFFFFFFFFFFFFFFF AND PUSH32 0x17307EAB39AB6107E8899845AD3D59BD9653F200F220920489CA2B5937696C31 DUP4 PUSH1 0x40 MLOAD PUSH2 0x1821 SWAP2 SWAP1 PUSH2 0x248E JUMP JUMPDEST PUSH1 0x40 MLOAD DUP1 SWAP2 SUB SWAP1 LOG3 POP POP POP JUMP JUMPDEST PUSH2 0x1839 DUP5 DUP5 DUP5 PUSH2 0x859 JUMP JUMPDEST PUSH2 0x184D PUSH2 0x1844 PUSH2 0x1228 JUMP JUMPDEST DUP6 DUP6 DUP6 DUP6 PUSH2 0x1E68 JUMP JUMPDEST POP POP POP POP JUMP JUMPDEST PUSH1 0x60 PUSH1 0x40 MLOAD DUP1 PUSH1 0x20 ADD PUSH1 0x40 MSTORE DUP1 PUSH0 DUP2 MSTORE POP SWAP1 POP SWAP1 JUMP JUMPDEST PUSH1 0x60 PUSH0 PUSH1 0x1 PUSH2 0x1877 DUP5 PUSH2 0x2014 JUMP JUMPDEST ADD SWAP1 POP PUSH0 DUP2 PUSH8 0xFFFFFFFFFFFFFFFF DUP2 GT ISZERO PUSH2 0x1895 JUMPI PUSH2 0x1894 PUSH2 0x2846 JUMP JUMPDEST JUMPDEST PUSH1 0x40 MLOAD SWAP1 DUP1 DUP3 MSTORE DUP1 PUSH1 0x1F ADD PUSH1 0x1F NOT AND PUSH1 0x20 ADD DUP3 ADD PUSH1 0x40 MSTORE DUP1 ISZERO PUSH2 0x18C7 JUMPI DUP2 PUSH1 0x20 ADD PUSH1 0x1 DUP3 MUL DUP1 CALLDATASIZE DUP4 CALLDATACOPY DUP1 DUP3 ADD SWAP2 POP POP SWAP1 POP JUMPDEST POP SWAP1 POP PUSH0 DUP3 PUSH1 0x20 ADD DUP3 ADD SWAP1 POP JUMPDEST PUSH1 0x1 ISZERO PUSH2 0x1928 JUMPI DUP1 DUP1 PUSH1 0x1 SWAP1 SUB SWAP2 POP POP PUSH32 0x3031323334353637383961626364656600000000000000000000000000000000 PUSH1 0xA DUP7 MOD BYTE DUP2 MSTORE8 PUSH1 0xA DUP6 DUP2 PUSH2 0x191D JUMPI PUSH2 0x191C PUSH2 0x2D03 JUMP JUMPDEST JUMPDEST DIV SWAP5 POP PUSH0 DUP6 SUB PUSH2 0x18D4 JUMPI JUMPDEST DUP2 SWAP4 POP POP POP POP SWAP2 SWAP1 POP JUMP JUMPDEST PUSH0 PUSH32 0x80AC58CD00000000000000000000000000000000000000000000000000000000 PUSH28 0xFFFFFFFFFFFFFFFFFFFFFFFFFFFFFFFFFFFFFFFFFFFFFFFFFFFFFFFF NOT AND DUP3 PUSH28 0xFFFFFFFFFFFFFFFFFFFFFFFFFFFFFFFFFFFFFFFFFFFFFFFFFFFFFFFF NOT AND EQ DUP1 PUSH2 0x19FD JUMPI POP PUSH32 0x5B5E139F00000000000000000000000000000000000000000000000000000000 PUSH28 0xFFFFFFFFFFFFFFFFFFFFFFFFFFFFFFFFFFFFFFFFFFFFFFFFFFFFFFFF NOT AND DUP3 PUSH28 0xFFFFFFFFFFFFFFFFFFFFFFFFFFFFFFFFFFFFFFFFFFFFFFFFFFFFFFFF NOT AND EQ JUMPDEST DUP1 PUSH2 0x1A0D JUMPI POP PUSH2 0x1A0C DUP3 PUSH2 0x2165 JUMP JUMPDEST JUMPDEST SWAP1 POP SWAP2 SWAP1 POP JUMP JUMPDEST PUSH0 PUSH1 0x2 PUSH0 DUP4 DUP2 MSTORE PUSH1 0x20 ADD SWAP1 DUP2 MSTORE PUSH1 0x20 ADD PUSH0 KECCAK256 PUSH0 SWAP1 SLOAD SWAP1 PUSH2 0x100 EXP SWAP1 DIV PUSH20 0xFFFFFFFFFFFFFFFFFFFFFFFFFFFFFFFFFFFFFFFF AND SWAP1 POP SWAP2 SWAP1 POP JUMP JUMPDEST DUP1 DUP1 PUSH2 0x1A85 JUMPI POP PUSH0 PUSH20 0xFFFFFFFFFFFFFFFFFFFFFFFFFFFFFFFFFFFFFFFF AND DUP3 PUSH20 0xFFFFFFFFFFFFFFFFFFFFFFFFFFFFFFFFFFFFFFFF AND EQ ISZERO JUMPDEST ISZERO PUSH2 0x1BB7 JUMPI PUSH0 PUSH2 0x1A94 DUP5 PUSH2 0x1169 JUMP JUMPDEST SWAP1 POP PUSH0 PUSH20 0xFFFFFFFFFFFFFFFFFFFFFFFFFFFFFFFFFFFFFFFF AND DUP4 PUSH20 0xFFFFFFFFFFFFFFFFFFFFFFFFFFFFFFFFFFFFFFFF AND EQ ISZERO DUP1 ISZERO PUSH2 0x1AFE JUMPI POP DUP3 PUSH20 0xFFFFFFFFFFFFFFFFFFFFFFFFFFFFFFFFFFFFFFFF AND DUP2 PUSH20 0xFFFFFFFFFFFFFFFFFFFFFFFFFFFFFFFFFFFFFFFF AND EQ ISZERO JUMPDEST DUP1 ISZERO PUSH2 0x1B11 JUMPI POP PUSH2 0x1B0F DUP2 DUP5 PUSH2 0x1001 JUMP JUMPDEST ISZERO JUMPDEST ISZERO PUSH2 0x1B53 JUMPI DUP3 PUSH1 0x40 MLOAD PUSH32 0xA9FBF51F00000000000000000000000000000000000000000000000000000000 DUP2 MSTORE PUSH1 0x4 ADD PUSH2 0x1B4A SWAP2 SWAP1 PUSH2 0x2590 JUMP JUMPDEST PUSH1 0x40 MLOAD DUP1 SWAP2 SUB SWAP1 REVERT JUMPDEST DUP2 ISZERO PUSH2 0x1BB5 JUMPI DUP4 DUP6 PUSH20 0xFFFFFFFFFFFFFFFFFFFFFFFFFFFFFFFFFFFFFFFF AND DUP3 PUSH20 0xFFFFFFFFFFFFFFFFFFFFFFFFFFFFFFFFFFFFFFFF AND PUSH32 0x8C5BE1E5EBEC7D5BD14F71427D1E84F3DD0314C0F7B2291E5B200AC8C7C3B925 PUSH1 0x40 MLOAD PUSH1 0x40 MLOAD DUP1 SWAP2 SUB SWAP1 LOG4 JUMPDEST POP JUMPDEST DUP4 PUSH1 0x4 PUSH0 DUP6 DUP2 MSTORE PUSH1 0x20 ADD SWAP1 DUP2 MSTORE PUSH1 0x20 ADD PUSH0 KECCAK256 PUSH0 PUSH2 0x100 EXP DUP2 SLOAD DUP2 PUSH20 0xFFFFFFFFFFFFFFFFFFFFFFFFFFFFFFFFFFFFFFFF MUL NOT AND SWAP1 DUP4 PUSH20 0xFFFFFFFFFFFFFFFFFFFFFFFFFFFFFFFFFFFFFFFF AND MUL OR SWAP1 SSTORE POP POP POP POP POP JUMP JUMPDEST PUSH2 0x1C16 DUP3 DUP3 PUSH2 0xC66 JUMP JUMPDEST PUSH2 0x1C59 JUMPI DUP1 DUP3 PUSH1 0x40 MLOAD PUSH32 0xE2517D3F00000000000000000000000000000000000000000000000000000000 DUP2 MSTORE PUSH1 0x4 ADD PUSH2 0x1C50 SWAP3 SWAP2 SWAP1 PUSH2 0x2D30 JUMP JUMPDEST PUSH1 0x40 MLOAD DUP1 SWAP2 SUB SWAP1 REVERT JUMPDEST POP POP JUMP JUMPDEST PUSH0 DUP1 PUSH2 0x1C68 DUP5 PUSH2 0x1A14 JUMP JUMPDEST SWAP1 POP PUSH0 PUSH20 0xFFFFFFFFFFFFFFFFFFFFFFFFFFFFFFFFFFFFFFFF AND DUP4 PUSH20 0xFFFFFFFFFFFFFFFFFFFFFFFFFFFFFFFFFFFFFFFF AND EQ PUSH2 0x1CA9 JUMPI PUSH2 0x1CA8 DUP2 DUP5 DUP7 PUSH2 0x21CE JUMP JUMPDEST JUMPDEST PUSH0 PUSH20 0xFFFFFFFFFFFFFFFFFFFFFFFFFFFFFFFFFFFFFFFF AND DUP2 PUSH20 0xFFFFFFFFFFFFFFFFFFFFFFFFFFFFFFFFFFFFFFFF AND EQ PUSH2 0x1D34 JUMPI PUSH2 0x1CE8 PUSH0 DUP6 PUSH0 DUP1 PUSH2 0x1A4D JUMP JUMPDEST PUSH1 0x1 PUSH1 0x3 PUSH0 DUP4 PUSH20 0xFFFFFFFFFFFFFFFFFFFFFFFFFFFFFFFFFFFFFFFF AND PUSH20 0xFFFFFFFFFFFFFFFFFFFFFFFFFFFFFFFFFFFFFFFF AND DUP2 MSTORE PUSH1 0x20 ADD SWAP1 DUP2 MSTORE PUSH1 0x20 ADD PUSH0 KECCAK256 PUSH0 DUP3 DUP3 SLOAD SUB SWAP3 POP POP DUP2 SWAP1 SSTORE POP JUMPDEST PUSH0 PUSH20 0xFFFFFFFFFFFFFFFFFFFFFFFFFFFFFFFFFFFFFFFF AND DUP6 PUSH20 0xFFFFFFFFFFFFFFFFFFFFFFFFFFFFFFFFFFFFFFFF AND EQ PUSH2 0x1DB3 JUMPI PUSH1 0x1 PUSH1 0x3 PUSH0 DUP8 PUSH20 0xFFFFFFFFFFFFFFFFFFFFFFFFFFFFFFFFFFFFFFFF AND PUSH20 0xFFFFFFFFFFFFFFFFFFFFFFFFFFFFFFFFFFFFFFFF AND DUP2 MSTORE PUSH1 0x20 ADD SWAP1 DUP2 MSTORE PUSH1 0x20 ADD PUSH0 KECCAK256 PUSH0 DUP3 DUP3 SLOAD ADD SWAP3 POP POP DUP2 SWAP1 SSTORE POP JUMPDEST DUP5 PUSH1 0x2 PUSH0 DUP7 DUP2 MSTORE PUSH1 0x20 ADD SWAP1 DUP2 MSTORE PUSH1 0x20 ADD PUSH0 KECCAK256 PUSH0 PUSH2 0x100 EXP DUP2 SLOAD DUP2 PUSH20 0xFFFFFFFFFFFFFFFFFFFFFFFFFFFFFFFFFFFFFFFF MUL NOT AND SWAP1 DUP4 PUSH20 0xFFFFFFFFFFFFFFFFFFFFFFFFFFFFFFFFFFFFFFFF AND MUL OR SWAP1 SSTORE POP DUP4 DUP6 PUSH20 0xFFFFFFFFFFFFFFFFFFFFFFFFFFFFFFFFFFFFFFFF AND DUP3 PUSH20 0xFFFFFFFFFFFFFFFFFFFFFFFFFFFFFFFFFFFFFFFF AND PUSH32 0xDDF252AD1BE2C89B69C2B068FC378DAA952BA7F163C4A11628F55A4DF523B3EF PUSH1 0x40 MLOAD PUSH1 0x40 MLOAD DUP1 SWAP2 SUB SWAP1 LOG4 DUP1 SWAP2 POP POP SWAP4 SWAP3 POP POP POP JUMP JUMPDEST PUSH0 DUP4 PUSH20 0xFFFFFFFFFFFFFFFFFFFFFFFFFFFFFFFFFFFFFFFF AND EXTCODESIZE GT ISZERO PUSH2 0x200D JUMPI DUP3 PUSH20 0xFFFFFFFFFFFFFFFFFFFFFFFFFFFFFFFFFFFFFFFF AND PUSH4 0x150B7A02 DUP7 DUP7 DUP6 DUP6 PUSH1 0x40 MLOAD DUP6 PUSH4 0xFFFFFFFF AND PUSH1 0xE0 SHL DUP2 MSTORE PUSH1 0x4 ADD PUSH2 0x1EC6 SWAP5 SWAP4 SWAP3 SWAP2 SWAP1 PUSH2 0x2DA9 JUMP JUMPDEST PUSH1 0x20 PUSH1 0x40 MLOAD DUP1 DUP4 SUB DUP2 PUSH0 DUP8 GAS CALL SWAP3 POP POP POP DUP1 ISZERO PUSH2 0x1F01 JUMPI POP PUSH1 0x40 MLOAD RETURNDATASIZE PUSH1 0x1F NOT PUSH1 0x1F DUP3 ADD AND DUP3 ADD DUP1 PUSH1 0x40 MSTORE POP DUP2 ADD SWAP1 PUSH2 0x1EFE SWAP2 SWAP1 PUSH2 0x2E07 JUMP JUMPDEST PUSH1 0x1 JUMPDEST PUSH2 0x1F82 JUMPI RETURNDATASIZE DUP1 PUSH0 DUP2 EQ PUSH2 0x1F2F JUMPI PUSH1 0x40 MLOAD SWAP2 POP PUSH1 0x1F NOT PUSH1 0x3F RETURNDATASIZE ADD AND DUP3 ADD PUSH1 0x40 MSTORE RETURNDATASIZE DUP3 MSTORE RETURNDATASIZE PUSH0 PUSH1 0x20 DUP5 ADD RETURNDATACOPY PUSH2 0x1F34 JUMP JUMPDEST PUSH1 0x60 SWAP2 POP JUMPDEST POP PUSH0 DUP2 MLOAD SUB PUSH2 0x1F7A JUMPI DUP4 PUSH1 0x40 MLOAD PUSH32 0x64A0AE9200000000000000000000000000000000000000000000000000000000 DUP2 MSTORE PUSH1 0x4 ADD PUSH2 0x1F71 SWAP2 SWAP1 PUSH2 0x2590 JUMP JUMPDEST PUSH1 0x40 MLOAD DUP1 SWAP2 SUB SWAP1 REVERT JUMPDEST DUP1 MLOAD DUP2 PUSH1 0x20 ADD REVERT JUMPDEST PUSH4 0x150B7A02 PUSH1 0xE0 SHL PUSH28 0xFFFFFFFFFFFFFFFFFFFFFFFFFFFFFFFFFFFFFFFFFFFFFFFFFFFFFFFF NOT AND DUP2 PUSH28 0xFFFFFFFFFFFFFFFFFFFFFFFFFFFFFFFFFFFFFFFFFFFFFFFFFFFFFFFF NOT AND EQ PUSH2 0x200B JUMPI DUP4 PUSH1 0x40 MLOAD PUSH32 0x64A0AE9200000000000000000000000000000000000000000000000000000000 DUP2 MSTORE PUSH1 0x4 ADD PUSH2 0x2002 SWAP2 SWAP1 PUSH2 0x2590 JUMP JUMPDEST PUSH1 0x40 MLOAD DUP1 SWAP2 SUB SWAP1 REVERT JUMPDEST POP JUMPDEST POP POP POP POP POP JUMP JUMPDEST PUSH0 DUP1 PUSH0 SWAP1 POP PUSH27 0x184F03E93FF9F4DAA797ED6E38ED64BF6A1F010000000000000000 DUP4 LT PUSH2 0x2070 JUMPI PUSH27 0x184F03E93FF9F4DAA797ED6E38ED64BF6A1F010000000000000000 DUP4 DUP2 PUSH2 0x2066 JUMPI PUSH2 0x2065 PUSH2 0x2D03 JUMP JUMPDEST JUMPDEST DIV SWAP3 POP PUSH1 0x40 DUP2 ADD SWAP1 POP JUMPDEST PUSH14 0x4EE2D6D415B85ACEF8100000000 DUP4 LT PUSH2 0x20AD JUMPI PUSH14 0x4EE2D6D415B85ACEF8100000000 DUP4 DUP2 PUSH2 0x20A3 JUMPI PUSH2 0x20A2 PUSH2 0x2D03 JUMP JUMPDEST JUMPDEST DIV SWAP3 POP PUSH1 0x20 DUP2 ADD SWAP1 POP JUMPDEST PUSH7 0x2386F26FC10000 DUP4 LT PUSH2 0x20DC JUMPI PUSH7 0x2386F26FC10000 DUP4 DUP2 PUSH2 0x20D2 JUMPI PUSH2 0x20D1 PUSH2 0x2D03 JUMP JUMPDEST JUMPDEST DIV SWAP3 POP PUSH1 0x10 DUP2 ADD SWAP1 POP JUMPDEST PUSH4 0x5F5E100 DUP4 LT PUSH2 0x2105 JUMPI PUSH4 0x5F5E100 DUP4 DUP2 PUSH2 0x20FB JUMPI PUSH2 0x20FA PUSH2 0x2D03 JUMP JUMPDEST JUMPDEST DIV SWAP3 POP PUSH1 0x8 DUP2 ADD SWAP1 POP JUMPDEST PUSH2 0x2710 DUP4 LT PUSH2 0x212A JUMPI PUSH2 0x2710 DUP4 DUP2 PUSH2 0x2120 JUMPI PUSH2 0x211F PUSH2 0x2D03 JUMP JUMPDEST JUMPDEST DIV SWAP3 POP PUSH1 0x4 DUP2 ADD SWAP1 POP JUMPDEST PUSH1 0x64 DUP4 LT PUSH2 0x214D JUMPI PUSH1 0x64 DUP4 DUP2 PUSH2 0x2143 JUMPI PUSH2 0x2142 PUSH2 0x2D03 JUMP JUMPDEST JUMPDEST DIV SWAP3 POP PUSH1 0x2 DUP2 ADD SWAP1 POP JUMPDEST PUSH1 0xA DUP4 LT PUSH2 0x215C JUMPI PUSH1 0x1 DUP2 ADD SWAP1 POP JUMPDEST DUP1 SWAP2 POP POP SWAP2 SWAP1 POP JUMP JUMPDEST PUSH0 PUSH32 0x1FFC9A700000000000000000000000000000000000000000000000000000000 PUSH28 0xFFFFFFFFFFFFFFFFFFFFFFFFFFFFFFFFFFFFFFFFFFFFFFFFFFFFFFFF NOT AND DUP3 PUSH28 0xFFFFFFFFFFFFFFFFFFFFFFFFFFFFFFFFFFFFFFFFFFFFFFFFFFFFFFFF NOT AND EQ SWAP1 POP SWAP2 SWAP1 POP JUMP JUMPDEST PUSH2 0x21D9 DUP4 DUP4 DUP4 PUSH2 0x2291 JUMP JUMPDEST PUSH2 0x228C JUMPI PUSH0 PUSH20 0xFFFFFFFFFFFFFFFFFFFFFFFFFFFFFFFFFFFFFFFF AND DUP4 PUSH20 0xFFFFFFFFFFFFFFFFFFFFFFFFFFFFFFFFFFFFFFFF AND SUB PUSH2 0x224D JUMPI DUP1 PUSH1 0x40 MLOAD PUSH32 0x7E27328900000000000000000000000000000000000000000000000000000000 DUP2 MSTORE PUSH1 0x4 ADD PUSH2 0x2244 SWAP2 SWAP1 PUSH2 0x275F JUMP JUMPDEST PUSH1 0x40 MLOAD DUP1 SWAP2 SUB SWAP1 REVERT JUMPDEST DUP2 DUP2 PUSH1 0x40 MLOAD PUSH32 0x177E802F00000000000000000000000000000000000000000000000000000000 DUP2 MSTORE PUSH1 0x4 ADD PUSH2 0x2283 SWAP3 SWAP2 SWAP1 PUSH2 0x2E32 JUMP JUMPDEST PUSH1 0x40 MLOAD DUP1 SWAP2 SUB SWAP1 REVERT JUMPDEST POP POP POP JUMP JUMPDEST PUSH0 DUP1 PUSH20 0xFFFFFFFFFFFFFFFFFFFFFFFFFFFFFFFFFFFFFFFF AND DUP4 PUSH20 0xFFFFFFFFFFFFFFFFFFFFFFFFFFFFFFFFFFFFFFFF AND EQ ISZERO DUP1 ISZERO PUSH2 0x2348 JUMPI POP DUP3 PUSH20 0xFFFFFFFFFFFFFFFFFFFFFFFFFFFFFFFFFFFFFFFF AND DUP5 PUSH20 0xFFFFFFFFFFFFFFFFFFFFFFFFFFFFFFFFFFFFFFFF AND EQ DUP1 PUSH2 0x2309 JUMPI POP PUSH2 0x2308 DUP5 DUP5 PUSH2 0x1001 JUMP JUMPDEST JUMPDEST DUP1 PUSH2 0x2347 JUMPI POP DUP3 PUSH20 0xFFFFFFFFFFFFFFFFFFFFFFFFFFFFFFFFFFFFFFFF AND PUSH2 0x232F DUP4 PUSH2 0x11EF JUMP JUMPDEST PUSH20 0xFFFFFFFFFFFFFFFFFFFFFFFFFFFFFFFFFFFFFFFF AND EQ JUMPDEST JUMPDEST SWAP1 POP SWAP4 SWAP3 POP POP POP JUMP JUMPDEST PUSH0 PUSH1 0x40 MLOAD SWAP1 POP SWAP1 JUMP JUMPDEST PUSH0 DUP1 REVERT JUMPDEST PUSH0 DUP1 REVERT JUMPDEST PUSH0 DUP2 SWAP1 POP SWAP2 SWAP1 POP JUMP JUMPDEST PUSH2 0x2374 DUP2 PUSH2 0x2362 JUMP JUMPDEST DUP2 EQ PUSH2 0x237E JUMPI PUSH0 DUP1 REVERT JUMPDEST POP JUMP JUMPDEST PUSH0 DUP2 CALLDATALOAD SWAP1 POP PUSH2 0x238F DUP2 PUSH2 0x236B JUMP JUMPDEST SWAP3 SWAP2 POP POP JUMP JUMPDEST PUSH0 PUSH1 0x20 DUP3 DUP5 SUB SLT ISZERO PUSH2 0x23AA JUMPI PUSH2 0x23A9 PUSH2 0x235A JUMP JUMPDEST JUMPDEST PUSH0 PUSH2 0x23B7 DUP5 DUP3 DUP6 ADD PUSH2 0x2381 JUMP JUMPDEST SWAP2 POP POP SWAP3 SWAP2 POP POP JUMP JUMPDEST PUSH0 PUSH1 0xFF DUP3 AND SWAP1 POP SWAP2 SWAP1 POP JUMP JUMPDEST PUSH2 0x23D5 DUP2 PUSH2 0x23C0 JUMP JUMPDEST DUP3 MSTORE POP POP JUMP JUMPDEST PUSH0 PUSH1 0x20 DUP3 ADD SWAP1 POP PUSH2 0x23EE PUSH0 DUP4 ADD DUP5 PUSH2 0x23CC JUMP JUMPDEST SWAP3 SWAP2 POP POP JUMP JUMPDEST PUSH0 PUSH32 0xFFFFFFFF00000000000000000000000000000000000000000000000000000000 DUP3 AND SWAP1 POP SWAP2 SWAP1 POP JUMP JUMPDEST PUSH2 0x2428 DUP2 PUSH2 0x23F4 JUMP JUMPDEST DUP2 EQ PUSH2 0x2432 JUMPI PUSH0 DUP1 REVERT JUMPDEST POP JUMP JUMPDEST PUSH0 DUP2 CALLDATALOAD SWAP1 POP PUSH2 0x2443 DUP2 PUSH2 0x241F JUMP JUMPDEST SWAP3 SWAP2 POP POP JUMP JUMPDEST PUSH0 PUSH1 0x20 DUP3 DUP5 SUB SLT ISZERO PUSH2 0x245E JUMPI PUSH2 0x245D PUSH2 0x235A JUMP JUMPDEST JUMPDEST PUSH0 PUSH2 0x246B DUP5 DUP3 DUP6 ADD PUSH2 0x2435 JUMP JUMPDEST SWAP2 POP POP SWAP3 SWAP2 POP POP JUMP JUMPDEST PUSH0 DUP2 ISZERO ISZERO SWAP1 POP SWAP2 SWAP1 POP JUMP JUMPDEST PUSH2 0x2488 DUP2 PUSH2 0x2474 JUMP JUMPDEST DUP3 MSTORE POP POP JUMP JUMPDEST PUSH0 PUSH1 0x20 DUP3 ADD SWAP1 POP PUSH2 0x24A1 PUSH0 DUP4 ADD DUP5 PUSH2 0x247F JUMP JUMPDEST SWAP3 SWAP2 POP POP JUMP JUMPDEST PUSH0 DUP2 MLOAD SWAP1 POP SWAP2 SWAP1 POP JUMP JUMPDEST PUSH0 DUP3 DUP3 MSTORE PUSH1 0x20 DUP3 ADD SWAP1 POP SWAP3 SWAP2 POP POP JUMP JUMPDEST PUSH0 JUMPDEST DUP4 DUP2 LT ISZERO PUSH2 0x24DE JUMPI DUP1 DUP3 ADD MLOAD DUP2 DUP5 ADD MSTORE PUSH1 0x20 DUP2 ADD SWAP1 POP PUSH2 0x24C3 JUMP JUMPDEST PUSH0 DUP5 DUP5 ADD MSTORE POP POP POP POP JUMP JUMPDEST PUSH0 PUSH1 0x1F NOT PUSH1 0x1F DUP4 ADD AND SWAP1 POP SWAP2 SWAP1 POP JUMP JUMPDEST PUSH0 PUSH2 0x2503 DUP3 PUSH2 0x24A7 JUMP JUMPDEST PUSH2 0x250D DUP2 DUP6 PUSH2 0x24B1 JUMP JUMPDEST SWAP4 POP PUSH2 0x251D DUP2 DUP6 PUSH1 0x20 DUP7 ADD PUSH2 0x24C1 JUMP JUMPDEST PUSH2 0x2526 DUP2 PUSH2 0x24E9 JUMP JUMPDEST DUP5 ADD SWAP2 POP POP SWAP3 SWAP2 POP POP JUMP JUMPDEST PUSH0 PUSH1 0x20 DUP3 ADD SWAP1 POP DUP2 DUP2 SUB PUSH0 DUP4 ADD MSTORE PUSH2 0x2549 DUP2 DUP5 PUSH2 0x24F9 JUMP JUMPDEST SWAP1 POP SWAP3 SWAP2 POP POP JUMP JUMPDEST PUSH0 PUSH20 0xFFFFFFFFFFFFFFFFFFFFFFFFFFFFFFFFFFFFFFFF DUP3 AND SWAP1 POP SWAP2 SWAP1 POP JUMP JUMPDEST PUSH0 PUSH2 0x257A DUP3 PUSH2 0x2551 JUMP JUMPDEST SWAP1 POP SWAP2 SWAP1 POP JUMP JUMPDEST PUSH2 0x258A DUP2 PUSH2 0x2570 JUMP JUMPDEST DUP3 MSTORE POP POP JUMP JUMPDEST PUSH0 PUSH1 0x20 DUP3 ADD SWAP1 POP PUSH2 0x25A3 PUSH0 DUP4 ADD DUP5 PUSH2 0x2581 JUMP JUMPDEST SWAP3 SWAP2 POP POP JUMP JUMPDEST PUSH2 0x25B2 DUP2 PUSH2 0x2570 JUMP JUMPDEST DUP2 EQ PUSH2 0x25BC JUMPI PUSH0 DUP1 REVERT JUMPDEST POP JUMP JUMPDEST PUSH0 DUP2 CALLDATALOAD SWAP1 POP PUSH2 0x25CD DUP2 PUSH2 0x25A9 JUMP JUMPDEST SWAP3 SWAP2 POP POP JUMP JUMPDEST PUSH0 PUSH1 0x20 DUP3 DUP5 SUB SLT ISZERO PUSH2 0x25E8 JUMPI PUSH2 0x25E7 PUSH2 0x235A JUMP JUMPDEST JUMPDEST PUSH0 PUSH2 0x25F5 DUP5 DUP3 DUP6 ADD PUSH2 0x25BF JUMP JUMPDEST SWAP2 POP POP SWAP3 SWAP2 POP POP JUMP JUMPDEST PUSH0 DUP1 PUSH1 0x40 DUP4 DUP6 SUB SLT ISZERO PUSH2 0x2614 JUMPI PUSH2 0x2613 PUSH2 0x235A JUMP JUMPDEST JUMPDEST PUSH0 PUSH2 0x2621 DUP6 DUP3 DUP7 ADD PUSH2 0x25BF JUMP JUMPDEST SWAP3 POP POP PUSH1 0x20 PUSH2 0x2632 DUP6 DUP3 DUP7 ADD PUSH2 0x2381 JUMP JUMPDEST SWAP2 POP POP SWAP3 POP SWAP3 SWAP1 POP JUMP JUMPDEST PUSH0 DUP1 PUSH0 PUSH1 0x60 DUP5 DUP7 SUB SLT ISZERO PUSH2 0x2653 JUMPI PUSH2 0x2652 PUSH2 0x235A JUMP JUMPDEST JUMPDEST PUSH0 PUSH2 0x2660 DUP7 DUP3 DUP8 ADD PUSH2 0x25BF JUMP JUMPDEST SWAP4 POP POP PUSH1 0x20 PUSH2 0x2671 DUP7 DUP3 DUP8 ADD PUSH2 0x25BF JUMP JUMPDEST SWAP3 POP POP PUSH1 0x40 PUSH2 0x2682 DUP7 DUP3 DUP8 ADD PUSH2 0x2381 JUMP JUMPDEST SWAP2 POP POP SWAP3 POP SWAP3 POP SWAP3 JUMP JUMPDEST PUSH0 DUP2 SWAP1 POP SWAP2 SWAP1 POP JUMP JUMPDEST PUSH2 0x269E DUP2 PUSH2 0x268C JUMP JUMPDEST DUP2 EQ PUSH2 0x26A8 JUMPI PUSH0 DUP1 REVERT JUMPDEST POP JUMP JUMPDEST PUSH0 DUP2 CALLDATALOAD SWAP1 POP PUSH2 0x26B9 DUP2 PUSH2 0x2695 JUMP JUMPDEST SWAP3 SWAP2 POP POP JUMP JUMPDEST PUSH0 PUSH1 0x20 DUP3 DUP5 SUB SLT ISZERO PUSH2 0x26D4 JUMPI PUSH2 0x26D3 PUSH2 0x235A JUMP JUMPDEST JUMPDEST PUSH0 PUSH2 0x26E1 DUP5 DUP3 DUP6 ADD PUSH2 0x26AB JUMP JUMPDEST SWAP2 POP POP SWAP3 SWAP2 POP POP JUMP JUMPDEST PUSH2 0x26F3 DUP2 PUSH2 0x268C JUMP JUMPDEST DUP3 MSTORE POP POP JUMP JUMPDEST PUSH0 PUSH1 0x20 DUP3 ADD SWAP1 POP PUSH2 0x270C PUSH0 DUP4 ADD DUP5 PUSH2 0x26EA JUMP JUMPDEST SWAP3 SWAP2 POP POP JUMP JUMPDEST PUSH0 DUP1 PUSH1 0x40 DUP4 DUP6 SUB SLT ISZERO PUSH2 0x2728 JUMPI PUSH2 0x2727 PUSH2 0x235A JUMP JUMPDEST JUMPDEST PUSH0 PUSH2 0x2735 DUP6 DUP3 DUP7 ADD PUSH2 0x26AB JUMP JUMPDEST SWAP3 POP POP PUSH1 0x20 PUSH2 0x2746 DUP6 DUP3 DUP7 ADD PUSH2 0x25BF JUMP JUMPDEST SWAP2 POP POP SWAP3 POP SWAP3 SWAP1 POP JUMP JUMPDEST PUSH2 0x2759 DUP2 PUSH2 0x2362 JUMP JUMPDEST DUP3 MSTORE POP POP JUMP JUMPDEST PUSH0 PUSH1 0x20 DUP3 ADD SWAP1 POP PUSH2 0x2772 PUSH0 DUP4 ADD DUP5 PUSH2 0x2750 JUMP JUMPDEST SWAP3 SWAP2 POP POP JUMP JUMPDEST PUSH0 PUSH4 0xFFFFFFFF DUP3 AND SWAP1 POP SWAP2 SWAP1 POP JUMP JUMPDEST PUSH2 0x2790 DUP2 PUSH2 0x2778 JUMP JUMPDEST DUP3 MSTORE POP POP JUMP JUMPDEST PUSH0 PUSH1 0x40 DUP3 ADD SWAP1 POP PUSH2 0x27A9 PUSH0 DUP4 ADD DUP6 PUSH2 0x2787 JUMP JUMPDEST PUSH2 0x27B6 PUSH1 0x20 DUP4 ADD DUP5 PUSH2 0x23CC JUMP JUMPDEST SWAP4 SWAP3 POP POP POP JUMP JUMPDEST PUSH0 PUSH1 0x20 DUP3 ADD SWAP1 POP PUSH2 0x27D0 PUSH0 DUP4 ADD DUP5 PUSH2 0x2787 JUMP JUMPDEST SWAP3 SWAP2 POP POP JUMP JUMPDEST PUSH2 0x27DF DUP2 PUSH2 0x2474 JUMP JUMPDEST DUP2 EQ PUSH2 0x27E9 JUMPI PUSH0 DUP1 REVERT JUMPDEST POP JUMP JUMPDEST PUSH0 DUP2 CALLDATALOAD SWAP1 POP PUSH2 0x27FA DUP2 PUSH2 0x27D6 JUMP JUMPDEST SWAP3 SWAP2 POP POP JUMP JUMPDEST PUSH0 DUP1 PUSH1 0x40 DUP4 DUP6 SUB SLT ISZERO PUSH2 0x2816 JUMPI PUSH2 0x2815 PUSH2 0x235A JUMP JUMPDEST JUMPDEST PUSH0 PUSH2 0x2823 DUP6 DUP3 DUP7 ADD PUSH2 0x25BF JUMP JUMPDEST SWAP3 POP POP PUSH1 0x20 PUSH2 0x2834 DUP6 DUP3 DUP7 ADD PUSH2 0x27EC JUMP JUMPDEST SWAP2 POP POP SWAP3 POP SWAP3 SWAP1 POP JUMP JUMPDEST PUSH0 DUP1 REVERT JUMPDEST PUSH0 DUP1 REVERT JUMPDEST PUSH32 0x4E487B7100000000000000000000000000000000000000000000000000000000 PUSH0 MSTORE PUSH1 0x41 PUSH1 0x4 MSTORE PUSH1 0x24 PUSH0 REVERT JUMPDEST PUSH2 0x287C DUP3 PUSH2 0x24E9 JUMP JUMPDEST DUP2 ADD DUP2 DUP2 LT PUSH8 0xFFFFFFFFFFFFFFFF DUP3 GT OR ISZERO PUSH2 0x289B JUMPI PUSH2 0x289A PUSH2 0x2846 JUMP JUMPDEST JUMPDEST DUP1 PUSH1 0x40 MSTORE POP POP POP JUMP JUMPDEST PUSH0 PUSH2 0x28AD PUSH2 0x2351 JUMP JUMPDEST SWAP1 POP PUSH2 0x28B9 DUP3 DUP3 PUSH2 0x2873 JUMP JUMPDEST SWAP2 SWAP1 POP JUMP JUMPDEST PUSH0 PUSH8 0xFFFFFFFFFFFFFFFF DUP3 GT ISZERO PUSH2 0x28D8 JUMPI PUSH2 0x28D7 PUSH2 0x2846 JUMP JUMPDEST JUMPDEST PUSH2 0x28E1 DUP3 PUSH2 0x24E9 JUMP JUMPDEST SWAP1 POP PUSH1 0x20 DUP2 ADD SWAP1 POP SWAP2 SWAP1 POP JUMP JUMPDEST DUP3 DUP2 DUP4 CALLDATACOPY PUSH0 DUP4 DUP4 ADD MSTORE POP POP POP JUMP JUMPDEST PUSH0 PUSH2 0x290E PUSH2 0x2909 DUP5 PUSH2 0x28BE JUMP JUMPDEST PUSH2 0x28A4 JUMP JUMPDEST SWAP1 POP DUP3 DUP2 MSTORE PUSH1 0x20 DUP2 ADD DUP5 DUP5 DUP5 ADD GT ISZERO PUSH2 0x292A JUMPI PUSH2 0x2929 PUSH2 0x2842 JUMP JUMPDEST JUMPDEST PUSH2 0x2935 DUP5 DUP3 DUP6 PUSH2 0x28EE JUMP JUMPDEST POP SWAP4 SWAP3 POP POP POP JUMP JUMPDEST PUSH0 DUP3 PUSH1 0x1F DUP4 ADD SLT PUSH2 0x2951 JUMPI PUSH2 0x2950 PUSH2 0x283E JUMP JUMPDEST JUMPDEST DUP2 CALLDATALOAD PUSH2 0x2961 DUP5 DUP3 PUSH1 0x20 DUP7 ADD PUSH2 0x28FC JUMP JUMPDEST SWAP2 POP POP SWAP3 SWAP2 POP POP JUMP JUMPDEST PUSH0 DUP1 PUSH0 DUP1 PUSH1 0x80 DUP6 DUP8 SUB SLT ISZERO PUSH2 0x2982 JUMPI PUSH2 0x2981 PUSH2 0x235A JUMP JUMPDEST JUMPDEST PUSH0 PUSH2 0x298F DUP8 DUP3 DUP9 ADD PUSH2 0x25BF JUMP JUMPDEST SWAP5 POP POP PUSH1 0x20 PUSH2 0x29A0 DUP8 DUP3 DUP9 ADD PUSH2 0x25BF JUMP JUMPDEST SWAP4 POP POP PUSH1 0x40 PUSH2 0x29B1 DUP8 DUP3 DUP9 ADD PUSH2 0x2381 JUMP JUMPDEST SWAP3 POP POP PUSH1 0x60 DUP6 ADD CALLDATALOAD PUSH8 0xFFFFFFFFFFFFFFFF DUP2 GT ISZERO PUSH2 0x29D2 JUMPI PUSH2 0x29D1 PUSH2 0x235E JUMP JUMPDEST JUMPDEST PUSH2 0x29DE DUP8 DUP3 DUP9 ADD PUSH2 0x293D JUMP JUMPDEST SWAP2 POP POP SWAP3 SWAP6 SWAP2 SWAP5 POP SWAP3 POP JUMP JUMPDEST PUSH0 DUP1 PUSH1 0x40 DUP4 DUP6 SUB SLT ISZERO PUSH2 0x2A00 JUMPI PUSH2 0x29FF PUSH2 0x235A JUMP JUMPDEST JUMPDEST PUSH0 PUSH2 0x2A0D DUP6 DUP3 DUP7 ADD PUSH2 0x25BF JUMP JUMPDEST SWAP3 POP POP PUSH1 0x20 PUSH2 0x2A1E DUP6 DUP3 DUP7 ADD PUSH2 0x25BF JUMP JUMPDEST SWAP2 POP POP SWAP3 POP SWAP3 SWAP1 POP JUMP JUMPDEST PUSH32 0x4E487B7100000000000000000000000000000000000000000000000000000000 PUSH0 MSTORE PUSH1 0x22 PUSH1 0x4 MSTORE PUSH1 0x24 PUSH0 REVERT JUMPDEST PUSH0 PUSH1 0x2 DUP3 DIV SWAP1 POP PUSH1 0x1 DUP3 AND DUP1 PUSH2 0x2A6C JUMPI PUSH1 0x7F DUP3 AND SWAP2 POP JUMPDEST PUSH1 0x20 DUP3 LT DUP2 SUB PUSH2 0x2A7F JUMPI PUSH2 0x2A7E PUSH2 0x2A28 JUMP JUMPDEST JUMPDEST POP SWAP2 SWAP1 POP JUMP JUMPDEST PUSH32 0x496E76616C696420706C6174666F726D20616464726573730000000000000000 PUSH0 DUP3 ADD MSTORE POP JUMP JUMPDEST PUSH0 PUSH2 0x2AB9 PUSH1 0x18 DUP4 PUSH2 0x24B1 JUMP JUMPDEST SWAP2 POP PUSH2 0x2AC4 DUP3 PUSH2 0x2A85 JUMP JUMPDEST PUSH1 0x20 DUP3 ADD SWAP1 POP SWAP2 SWAP1 POP JUMP JUMPDEST PUSH0 PUSH1 0x20 DUP3 ADD SWAP1 POP DUP2 DUP2 SUB PUSH0 DUP4 ADD MSTORE PUSH2 0x2AE6 DUP2 PUSH2 0x2AAD JUMP JUMPDEST SWAP1 POP SWAP2 SWAP1 POP JUMP JUMPDEST PUSH32 0x4552433732313A204F6E6C7920706C6174666F726D20636F6E74726163742061 PUSH0 DUP3 ADD MSTORE PUSH32 0x6C6C6F7765640000000000000000000000000000000000000000000000000000 PUSH1 0x20 DUP3 ADD MSTORE POP JUMP JUMPDEST PUSH0 PUSH2 0x2B47 PUSH1 0x26 DUP4 PUSH2 0x24B1 JUMP JUMPDEST SWAP2 POP PUSH2 0x2B52 DUP3 PUSH2 0x2AED JUMP JUMPDEST PUSH1 0x40 DUP3 ADD SWAP1 POP SWAP2 SWAP1 POP JUMP JUMPDEST PUSH0 PUSH1 0x20 DUP3 ADD SWAP1 POP DUP2 DUP2 SUB PUSH0 DUP4 ADD MSTORE PUSH2 0x2B74 DUP2 PUSH2 0x2B3B JUMP JUMPDEST SWAP1 POP SWAP2 SWAP1 POP JUMP JUMPDEST PUSH0 DUP2 SWAP1 POP SWAP3 SWAP2 POP POP JUMP JUMPDEST PUSH0 PUSH2 0x2B8F DUP3 PUSH2 0x24A7 JUMP JUMPDEST PUSH2 0x2B99 DUP2 DUP6 PUSH2 0x2B7B JUMP JUMPDEST SWAP4 POP PUSH2 0x2BA9 DUP2 DUP6 PUSH1 0x20 DUP7 ADD PUSH2 0x24C1 JUMP JUMPDEST DUP1 DUP5 ADD SWAP2 POP POP SWAP3 SWAP2 POP POP JUMP JUMPDEST PUSH0 PUSH2 0x2BC0 DUP3 DUP6 PUSH2 0x2B85 JUMP JUMPDEST SWAP2 POP PUSH2 0x2BCC DUP3 DUP5 PUSH2 0x2B85 JUMP JUMPDEST SWAP2 POP DUP2 SWAP1 POP SWAP4 SWAP3 POP POP POP JUMP JUMPDEST PUSH32 0x4552433732313A20457863656564206D6178696D756D207472616E7366657220 PUSH0 DUP3 ADD MSTORE PUSH32 0x636F756E74000000000000000000000000000000000000000000000000000000 PUSH1 0x20 DUP3 ADD MSTORE POP JUMP JUMPDEST PUSH0 PUSH2 0x2C32 PUSH1 0x25 DUP4 PUSH2 0x24B1 JUMP JUMPDEST SWAP2 POP PUSH2 0x2C3D DUP3 PUSH2 0x2BD8 JUMP JUMPDEST PUSH1 0x40 DUP3 ADD SWAP1 POP SWAP2 SWAP1 POP JUMP JUMPDEST PUSH0 PUSH1 0x20 DUP3 ADD SWAP1 POP DUP2 DUP2 SUB PUSH0 DUP4 ADD MSTORE PUSH2 0x2C5F DUP2 PUSH2 0x2C26 JUMP JUMPDEST SWAP1 POP SWAP2 SWAP1 POP JUMP JUMPDEST PUSH32 0x4552433732313A205472616E7366657220746F6F20736F6F6E00000000000000 PUSH0 DUP3 ADD MSTORE POP JUMP JUMPDEST PUSH0 PUSH2 0x2C9A PUSH1 0x19 DUP4 PUSH2 0x24B1 JUMP JUMPDEST SWAP2 POP PUSH2 0x2CA5 DUP3 PUSH2 0x2C66 JUMP JUMPDEST PUSH1 0x20 DUP3 ADD SWAP1 POP SWAP2 SWAP1 POP JUMP JUMPDEST PUSH0 PUSH1 0x20 DUP3 ADD SWAP1 POP DUP2 DUP2 SUB PUSH0 DUP4 ADD MSTORE PUSH2 0x2CC7 DUP2 PUSH2 0x2C8E JUMP JUMPDEST SWAP1 POP SWAP2 SWAP1 POP JUMP JUMPDEST PUSH0 PUSH1 0x60 DUP3 ADD SWAP1 POP PUSH2 0x2CE1 PUSH0 DUP4 ADD DUP7 PUSH2 0x2581 JUMP JUMPDEST PUSH2 0x2CEE PUSH1 0x20 DUP4 ADD DUP6 PUSH2 0x2750 JUMP JUMPDEST PUSH2 0x2CFB PUSH1 0x40 DUP4 ADD DUP5 PUSH2 0x2581 JUMP JUMPDEST SWAP5 SWAP4 POP POP POP POP JUMP JUMPDEST PUSH32 0x4E487B7100000000000000000000000000000000000000000000000000000000 PUSH0 MSTORE PUSH1 0x12 PUSH1 0x4 MSTORE PUSH1 0x24 PUSH0 REVERT JUMPDEST PUSH0 PUSH1 0x40 DUP3 ADD SWAP1 POP PUSH2 0x2D43 PUSH0 DUP4 ADD DUP6 PUSH2 0x2581 JUMP JUMPDEST PUSH2 0x2D50 PUSH1 0x20 DUP4 ADD DUP5 PUSH2 0x26EA JUMP JUMPDEST SWAP4 SWAP3 POP POP POP JUMP JUMPDEST PUSH0 DUP2 MLOAD SWAP1 POP SWAP2 SWAP1 POP JUMP JUMPDEST PUSH0 DUP3 DUP3 MSTORE PUSH1 0x20 DUP3 ADD SWAP1 POP SWAP3 SWAP2 POP POP JUMP JUMPDEST PUSH0 PUSH2 0x2D7B DUP3 PUSH2 0x2D57 JUMP JUMPDEST PUSH2 0x2D85 DUP2 DUP6 PUSH2 0x2D61 JUMP JUMPDEST SWAP4 POP PUSH2 0x2D95 DUP2 DUP6 PUSH1 0x20 DUP7 ADD PUSH2 0x24C1 JUMP JUMPDEST PUSH2 0x2D9E DUP2 PUSH2 0x24E9 JUMP JUMPDEST DUP5 ADD SWAP2 POP POP SWAP3 SWAP2 POP POP JUMP JUMPDEST PUSH0 PUSH1 0x80 DUP3 ADD SWAP1 POP PUSH2 0x2DBC PUSH0 DUP4 ADD DUP8 PUSH2 0x2581 JUMP JUMPDEST PUSH2 0x2DC9 PUSH1 0x20 DUP4 ADD DUP7 PUSH2 0x2581 JUMP JUMPDEST PUSH2 0x2DD6 PUSH1 0x40 DUP4 ADD DUP6 PUSH2 0x2750 JUMP JUMPDEST DUP2 DUP2 SUB PUSH1 0x60 DUP4 ADD MSTORE PUSH2 0x2DE8 DUP2 DUP5 PUSH2 0x2D71 JUMP JUMPDEST SWAP1 POP SWAP6 SWAP5 POP POP POP POP POP JUMP JUMPDEST PUSH0 DUP2 MLOAD SWAP1 POP PUSH2 0x2E01 DUP2 PUSH2 0x241F JUMP JUMPDEST SWAP3 SWAP2 POP POP JUMP JUMPDEST PUSH0 PUSH1 0x20 DUP3 DUP5 SUB SLT ISZERO PUSH2 0x2E1C JUMPI PUSH2 0x2E1B PUSH2 0x235A JUMP JUMPDEST JUMPDEST PUSH0 PUSH2 0x2E29 DUP5 DUP3 DUP6 ADD PUSH2 0x2DF3 JUMP JUMPDEST SWAP2 POP POP SWAP3 SWAP2 POP POP JUMP JUMPDEST PUSH0 PUSH1 0x40 DUP3 ADD SWAP1 POP PUSH2 0x2E45 PUSH0 DUP4 ADD DUP6 PUSH2 0x2581 JUMP JUMPDEST PUSH2 0x2E52 PUSH1 0x20 DUP4 ADD DUP5 PUSH2 0x2750 JUMP JUMPDEST SWAP4 SWAP3 POP POP POP JUMP INVALID LOG2 PUSH5 0x6970667358 0x22 SLT KECCAK256 0xED 0xC8 0x4A MULMOD CALL DUP13 0x5D 0x25 BALANCE PC 0xD4 0xC6 PUSH2 0xA2AE MSTORE EXTCODESIZE SSTORE PUSH16 0x6BDC600266DEC9F82B0F6B250764736F PUSH13 0x63430008140033000000000000 "
		},
		"gasEstimates": {
			"creation": {
				"codeDepositCost": "2383800",
				"executionCost": "infinite",
				"totalCost": "infinite"
			},
			"external": {
				"DEFAULT_ADMIN_ROLE()": "419",
				"PLATFORM_ROLE()": "414",
				"WHITELIST_ROLE()": "371",
				"addPlatform(address)": "infinite",
				"addToWhitelist(address)": "infinite",
				"approve(address,uint256)": "infinite",
				"balanceOf(address)": "infinite",
				"getApproved(uint256)": "infinite",
				"getLastTransferBlock(uint256)": "2882",
				"getMaxTransferCount()": "infinite",
				"getMinTransferInterval()": "infinite",
				"getRoleAdmin(bytes32)": "infinite",
				"getTokenInfo(uint256)": "5224",
				"getTransferCount(uint256)": "2913",
				"grantRole(bytes32,address)": "infinite",
				"hasRole(bytes32,address)": "3234",
				"isApprovedForAll(address,address)": "infinite",
				"isPlatform(address)": "3044",
				"isWhitelisted(address)": "3110",
				"name()": "infinite",
				"ownerOf(uint256)": "infinite",
				"removeFromWhitelist(address)": "infinite",
				"removePlatform(address)": "infinite",
				"renounceRole(bytes32,address)": "infinite",
				"revokeRole(bytes32,address)": "infinite",
				"safeTransferFrom(address,address,uint256)": "infinite",
				"safeTransferFrom(address,address,uint256,bytes)": "infinite",
				"setApprovalForAll(address,bool)": "infinite",
				"supportsInterface(bytes4)": "962",
				"symbol()": "infinite",
				"tokenURI(uint256)": "infinite",
				"transferFrom(address,address,uint256)": "infinite"
			},
			"internal": {
				"_checkTransferRestrictions(address,address,uint256)": "infinite"
			}
		},
		"methodIdentifiers": {
			"DEFAULT_ADMIN_ROLE()": "a217fddf",
			"PLATFORM_ROLE()": "70824c5c",
			"WHITELIST_ROLE()": "7a997ab7",
			"addPlatform(address)": "1fef4279",
			"addToWhitelist(address)": "e43252d7",
			"approve(address,uint256)": "095ea7b3",
			"balanceOf(address)": "70a08231",
			"getApproved(uint256)": "081812fc",
			"getLastTransferBlock(uint256)": "c11d6369",
			"getMaxTransferCount()": "f0565b66",
			"getMinTransferInterval()": "94b86711",
			"getRoleAdmin(bytes32)": "248a9ca3",
			"getTokenInfo(uint256)": "8c7a63ae",
			"getTransferCount(uint256)": "003a4a0f",
			"grantRole(bytes32,address)": "2f2ff15d",
			"hasRole(bytes32,address)": "91d14854",
			"isApprovedForAll(address,address)": "e985e9c5",
			"isPlatform(address)": "09141a7c",
			"isWhitelisted(address)": "3af32abf",
			"name()": "06fdde03",
			"ownerOf(uint256)": "6352211e",
			"removeFromWhitelist(address)": "8ab1d681",
			"removePlatform(address)": "f37d238f",
			"renounceRole(bytes32,address)": "36568abe",
			"revokeRole(bytes32,address)": "d547741f",
			"safeTransferFrom(address,address,uint256)": "42842e0e",
			"safeTransferFrom(address,address,uint256,bytes)": "b88d4fde",
			"setApprovalForAll(address,bool)": "a22cb465",
			"supportsInterface(bytes4)": "01ffc9a7",
			"symbol()": "95d89b41",
			"tokenURI(uint256)": "c87b56dd",
			"transferFrom(address,address,uint256)": "23b872dd"
		}
	},
	"abi": [
		{
			"inputs": [
				{
					"internalType": "string",
					"name": "name_",
					"type": "string"
				},
				{
					"internalType": "string",
					"name": "symbol_",
					"type": "string"
				},
				{
					"internalType": "uint32",
					"name": "minTransferInterval_",
					"type": "uint32"
				},
				{
					"internalType": "uint8",
					"name": "maxTransferCount_",
					"type": "uint8"
				}
			],
			"stateMutability": "nonpayable",
			"type": "constructor"
		},
		{
			"inputs": [],
			"name": "AccessControlBadConfirmation",
			"type": "error"
		},
		{
			"inputs": [
				{
					"internalType": "address",
					"name": "account",
					"type": "address"
				},
				{
					"internalType": "bytes32",
					"name": "neededRole",
					"type": "bytes32"
				}
			],
			"name": "AccessControlUnauthorizedAccount",
			"type": "error"
		},
		{
			"inputs": [
				{
					"internalType": "address",
					"name": "sender",
					"type": "address"
				},
				{
					"internalType": "uint256",
					"name": "tokenId",
					"type": "uint256"
				},
				{
					"internalType": "address",
					"name": "owner",
					"type": "address"
				}
			],
			"name": "ERC721IncorrectOwner",
			"type": "error"
		},
		{
			"inputs": [
				{
					"internalType": "address",
					"name": "operator",
					"type": "address"
				},
				{
					"internalType": "uint256",
					"name": "tokenId",
					"type": "uint256"
				}
			],
			"name": "ERC721InsufficientApproval",
			"type": "error"
		},
		{
			"inputs": [
				{
					"internalType": "address",
					"name": "approver",
					"type": "address"
				}
			],
			"name": "ERC721InvalidApprover",
			"type": "error"
		},
		{
			"inputs": [
				{
					"internalType": "address",
					"name": "operator",
					"type": "address"
				}
			],
			"name": "ERC721InvalidOperator",
			"type": "error"
		},
		{
			"inputs": [
				{
					"internalType": "address",
					"name": "owner",
					"type": "address"
				}
			],
			"name": "ERC721InvalidOwner",
			"type": "error"
		},
		{
			"inputs": [
				{
					"internalType": "address",
					"name": "receiver",
					"type": "address"
				}
			],
			"name": "ERC721InvalidReceiver",
			"type": "error"
		},
		{
			"inputs": [
				{
					"internalType": "address",
					"name": "sender",
					"type": "address"
				}
			],
			"name": "ERC721InvalidSender",
			"type": "error"
		},
		{
			"inputs": [
				{
					"internalType": "uint256",
					"name": "tokenId",
					"type": "uint256"
				}
			],
			"name": "ERC721NonexistentToken",
			"type": "error"
		},
		{
			"anonymous": false,
			"inputs": [
				{
					"indexed": true,
					"internalType": "address",
					"name": "owner",
					"type": "address"
				},
				{
					"indexed": true,
					"internalType": "address",
					"name": "approved",
					"type": "address"
				},
				{
					"indexed": true,
					"internalType": "uint256",
					"name": "tokenId",
					"type": "uint256"
				}
			],
			"name": "Approval",
			"type": "event"
		},
		{
			"anonymous": false,
			"inputs": [
				{
					"indexed": true,
					"internalType": "address",
					"name": "owner",
					"type": "address"
				},
				{
					"indexed": true,
					"internalType": "address",
					"name": "operator",
					"type": "address"
				},
				{
					"indexed": false,
					"internalType": "bool",
					"name": "approved",
					"type": "bool"
				}
			],
			"name": "ApprovalForAll",
			"type": "event"
		},
		{
			"anonymous": false,
			"inputs": [
				{
					"indexed": true,
					"internalType": "bytes32",
					"name": "role",
					"type": "bytes32"
				},
				{
					"indexed": true,
					"internalType": "bytes32",
					"name": "previousAdminRole",
					"type": "bytes32"
				},
				{
					"indexed": true,
					"internalType": "bytes32",
					"name": "newAdminRole",
					"type": "bytes32"
				}
			],
			"name": "RoleAdminChanged",
			"type": "event"
		},
		{
			"anonymous": false,
			"inputs": [
				{
					"indexed": true,
					"internalType": "bytes32",
					"name": "role",
					"type": "bytes32"
				},
				{
					"indexed": true,
					"internalType": "address",
					"name": "account",
					"type": "address"
				},
				{
					"indexed": true,
					"internalType": "address",
					"name": "sender",
					"type": "address"
				}
			],
			"name": "RoleGranted",
			"type": "event"
		},
		{
			"anonymous": false,
			"inputs": [
				{
					"indexed": true,
					"internalType": "bytes32",
					"name": "role",
					"type": "bytes32"
				},
				{
					"indexed": true,
					"internalType": "address",
					"name": "account",
					"type": "address"
				},
				{
					"indexed": true,
					"internalType": "address",
					"name": "sender",
					"type": "address"
				}
			],
			"name": "RoleRevoked",
			"type": "event"
		},
		{
			"anonymous": false,
			"inputs": [
				{
					"indexed": true,
					"internalType": "address",
					"name": "from",
					"type": "address"
				},
				{
					"indexed": true,
					"internalType": "address",
					"name": "to",
					"type": "address"
				},
				{
					"indexed": true,
					"internalType": "uint256",
					"name": "tokenId",
					"type": "uint256"
				}
			],
			"name": "Transfer",
			"type": "event"
		},
		{
			"inputs": [],
			"name": "DEFAULT_ADMIN_ROLE",
			"outputs": [
				{
					"internalType": "bytes32",
					"name": "",
					"type": "bytes32"
				}
			],
			"stateMutability": "view",
			"type": "function"
		},
		{
			"inputs": [],
			"name": "PLATFORM_ROLE",
			"outputs": [
				{
					"internalType": "bytes32",
					"name": "",
					"type": "bytes32"
				}
			],
			"stateMutability": "view",
			"type": "function"
		},
		{
			"inputs": [],
			"name": "WHITELIST_ROLE",
			"outputs": [
				{
					"internalType": "bytes32",
					"name": "",
					"type": "bytes32"
				}
			],
			"stateMutability": "view",
			"type": "function"
		},
		{
			"inputs": [
				{
					"internalType": "address",
					"name": "platformAddress",
					"type": "address"
				}
			],
			"name": "addPlatform",
			"outputs": [],
			"stateMutability": "nonpayable",
			"type": "function"
		},
		{
			"inputs": [
				{
					"internalType": "address",
					"name": "account",
					"type": "address"
				}
			],
			"name": "addToWhitelist",
			"outputs": [],
			"stateMutability": "nonpayable",
			"type": "function"
		},
		{
			"inputs": [
				{
					"internalType": "address",
					"name": "to",
					"type": "address"
				},
				{
					"internalType": "uint256",
					"name": "tokenId",
					"type": "uint256"
				}
			],
			"name": "approve",
			"outputs": [],
			"stateMutability": "nonpayable",
			"type": "function"
		},
		{
			"inputs": [
				{
					"internalType": "address",
					"name": "owner",
					"type": "address"
				}
			],
			"name": "balanceOf",
			"outputs": [
				{
					"internalType": "uint256",
					"name": "",
					"type": "uint256"
				}
			],
			"stateMutability": "view",
			"type": "function"
		},
		{
			"inputs": [
				{
					"internalType": "uint256",
					"name": "tokenId",
					"type": "uint256"
				}
			],
			"name": "getApproved",
			"outputs": [
				{
					"internalType": "address",
					"name": "",
					"type": "address"
				}
			],
			"stateMutability": "view",
			"type": "function"
		},
		{
			"inputs": [
				{
					"internalType": "uint256",
					"name": "tokenId",
					"type": "uint256"
				}
			],
			"name": "getLastTransferBlock",
			"outputs": [
				{
					"internalType": "uint32",
					"name": "",
					"type": "uint32"
				}
			],
			"stateMutability": "view",
			"type": "function"
		},
		{
			"inputs": [],
			"name": "getMaxTransferCount",
			"outputs": [
				{
					"internalType": "uint8",
					"name": "",
					"type": "uint8"
				}
			],
			"stateMutability": "view",
			"type": "function"
		},
		{
			"inputs": [],
			"name": "getMinTransferInterval",
			"outputs": [
				{
					"internalType": "uint32",
					"name": "",
					"type": "uint32"
				}
			],
			"stateMutability": "view",
			"type": "function"
		},
		{
			"inputs": [
				{
					"internalType": "bytes32",
					"name": "role",
					"type": "bytes32"
				}
			],
			"name": "getRoleAdmin",
			"outputs": [
				{
					"internalType": "bytes32",
					"name": "",
					"type": "bytes32"
				}
			],
			"stateMutability": "view",
			"type": "function"
		},
		{
			"inputs": [
				{
					"internalType": "uint256",
					"name": "tokenId",
					"type": "uint256"
				}
			],
			"name": "getTokenInfo",
			"outputs": [
				{
					"internalType": "uint32",
					"name": "lastBlock",
					"type": "uint32"
				},
				{
					"internalType": "uint8",
					"name": "count",
					"type": "uint8"
				}
			],
			"stateMutability": "view",
			"type": "function"
		},
		{
			"inputs": [
				{
					"internalType": "uint256",
					"name": "tokenId",
					"type": "uint256"
				}
			],
			"name": "getTransferCount",
			"outputs": [
				{
					"internalType": "uint8",
					"name": "",
					"type": "uint8"
				}
			],
			"stateMutability": "view",
			"type": "function"
		},
		{
			"inputs": [
				{
					"internalType": "bytes32",
					"name": "role",
					"type": "bytes32"
				},
				{
					"internalType": "address",
					"name": "account",
					"type": "address"
				}
			],
			"name": "grantRole",
			"outputs": [],
			"stateMutability": "nonpayable",
			"type": "function"
		},
		{
			"inputs": [
				{
					"internalType": "bytes32",
					"name": "role",
					"type": "bytes32"
				},
				{
					"internalType": "address",
					"name": "account",
					"type": "address"
				}
			],
			"name": "hasRole",
			"outputs": [
				{
					"internalType": "bool",
					"name": "",
					"type": "bool"
				}
			],
			"stateMutability": "view",
			"type": "function"
		},
		{
			"inputs": [
				{
					"internalType": "address",
					"name": "owner",
					"type": "address"
				},
				{
					"internalType": "address",
					"name": "operator",
					"type": "address"
				}
			],
			"name": "isApprovedForAll",
			"outputs": [
				{
					"internalType": "bool",
					"name": "",
					"type": "bool"
				}
			],
			"stateMutability": "view",
			"type": "function"
		},
		{
			"inputs": [
				{
					"internalType": "address",
					"name": "platformAddress",
					"type": "address"
				}
			],
			"name": "isPlatform",
			"outputs": [
				{
					"internalType": "bool",
					"name": "",
					"type": "bool"
				}
			],
			"stateMutability": "view",
			"type": "function"
		},
		{
			"inputs": [
				{
					"internalType": "address",
					"name": "account",
					"type": "address"
				}
			],
			"name": "isWhitelisted",
			"outputs": [
				{
					"internalType": "bool",
					"name": "",
					"type": "bool"
				}
			],
			"stateMutability": "view",
			"type": "function"
		},
		{
			"inputs": [],
			"name": "name",
			"outputs": [
				{
					"internalType": "string",
					"name": "",
					"type": "string"
				}
			],
			"stateMutability": "view",
			"type": "function"
		},
		{
			"inputs": [
				{
					"internalType": "uint256",
					"name": "tokenId",
					"type": "uint256"
				}
			],
			"name": "ownerOf",
			"outputs": [
				{
					"internalType": "address",
					"name": "",
					"type": "address"
				}
			],
			"stateMutability": "view",
			"type": "function"
		},
		{
			"inputs": [
				{
					"internalType": "address",
					"name": "account",
					"type": "address"
				}
			],
			"name": "removeFromWhitelist",
			"outputs": [],
			"stateMutability": "nonpayable",
			"type": "function"
		},
		{
			"inputs": [
				{
					"internalType": "address",
					"name": "platformAddress",
					"type": "address"
				}
			],
			"name": "removePlatform",
			"outputs": [],
			"stateMutability": "nonpayable",
			"type": "function"
		},
		{
			"inputs": [
				{
					"internalType": "bytes32",
					"name": "role",
					"type": "bytes32"
				},
				{
					"internalType": "address",
					"name": "callerConfirmation",
					"type": "address"
				}
			],
			"name": "renounceRole",
			"outputs": [],
			"stateMutability": "nonpayable",
			"type": "function"
		},
		{
			"inputs": [
				{
					"internalType": "bytes32",
					"name": "role",
					"type": "bytes32"
				},
				{
					"internalType": "address",
					"name": "account",
					"type": "address"
				}
			],
			"name": "revokeRole",
			"outputs": [],
			"stateMutability": "nonpayable",
			"type": "function"
		},
		{
			"inputs": [
				{
					"internalType": "address",
					"name": "from",
					"type": "address"
				},
				{
					"internalType": "address",
					"name": "to",
					"type": "address"
				},
				{
					"internalType": "uint256",
					"name": "tokenId",
					"type": "uint256"
				}
			],
			"name": "safeTransferFrom",
			"outputs": [],
			"stateMutability": "nonpayable",
			"type": "function"
		},
		{
			"inputs": [
				{
					"internalType": "address",
					"name": "from",
					"type": "address"
				},
				{
					"internalType": "address",
					"name": "to",
					"type": "address"
				},
				{
					"internalType": "uint256",
					"name": "tokenId",
					"type": "uint256"
				},
				{
					"internalType": "bytes",
					"name": "data",
					"type": "bytes"
				}
			],
			"name": "safeTransferFrom",
			"outputs": [],
			"stateMutability": "nonpayable",
			"type": "function"
		},
		{
			"inputs": [
				{
					"internalType": "address",
					"name": "operator",
					"type": "address"
				},
				{
					"internalType": "bool",
					"name": "approved",
					"type": "bool"
				}
			],
			"name": "setApprovalForAll",
			"outputs": [],
			"stateMutability": "nonpayable",
			"type": "function"
		},
		{
			"inputs": [
				{
					"internalType": "bytes4",
					"name": "interfaceId",
					"type": "bytes4"
				}
			],
			"name": "supportsInterface",
			"outputs": [
				{
					"internalType": "bool",
					"name": "",
					"type": "bool"
				}
			],
			"stateMutability": "view",
			"type": "function"
		},
		{
			"inputs": [],
			"name": "symbol",
			"outputs": [
				{
					"internalType": "string",
					"name": "",
					"type": "string"
				}
			],
			"stateMutability": "view",
			"type": "function"
		},
		{
			"inputs": [
				{
					"internalType": "uint256",
					"name": "tokenId",
					"type": "uint256"
				}
			],
			"name": "tokenURI",
			"outputs": [
				{
					"internalType": "string",
					"name": "",
					"type": "string"
				}
			],
			"stateMutability": "view",
			"type": "function"
		},
		{
			"inputs": [
				{
					"internalType": "address",
					"name": "from",
					"type": "address"
				},
				{
					"internalType": "address",
					"name": "to",
					"type": "address"
				},
				{
					"internalType": "uint256",
					"name": "tokenId",
					"type": "uint256"
				}
			],
			"name": "transferFrom",
			"outputs": [],
			"stateMutability": "nonpayable",
			"type": "function"
		}
	]
}